{
  "contractName": "Auction",
  "abi": [
    {
      "anonymous": false,
      "inputs": [
        {
          "indexed": true,
          "internalType": "address",
          "name": "highestBidder",
          "type": "address"
        },
        {
          "indexed": false,
          "internalType": "uint256",
          "name": "highestBid",
          "type": "uint256"
        }
      ],
      "name": "BidEvent",
      "type": "event"
    },
    {
      "anonymous": false,
      "inputs": [
        {
          "indexed": false,
          "internalType": "address",
          "name": "withdrawer",
          "type": "address"
        },
        {
          "indexed": false,
          "internalType": "uint256",
          "name": "amount",
          "type": "uint256"
        }
      ],
      "name": "WithdrawalEvent",
      "type": "event"
    },
    {
      "inputs": [],
      "name": "STATE",
      "outputs": [
        {
          "internalType": "enum Auction.auction_state",
          "name": "",
          "type": "uint8"
        }
      ],
      "stateMutability": "view",
      "type": "function"
    },
    {
      "inputs": [],
      "name": "auction_end",
      "outputs": [
        {
          "internalType": "uint256",
          "name": "",
          "type": "uint256"
        }
      ],
      "stateMutability": "view",
      "type": "function"
    },
    {
      "inputs": [],
      "name": "auction_item",
      "outputs": [
        {
          "internalType": "string",
          "name": "item_name",
          "type": "string"
        }
      ],
      "stateMutability": "view",
      "type": "function"
    },
    {
      "inputs": [],
      "name": "auction_start",
      "outputs": [
        {
          "internalType": "uint256",
          "name": "",
          "type": "uint256"
        }
      ],
      "stateMutability": "view",
      "type": "function"
    },
    {
      "inputs": [],
      "name": "minimum_price",
      "outputs": [
        {
          "internalType": "uint256",
          "name": "",
          "type": "uint256"
        }
      ],
      "stateMutability": "view",
      "type": "function"
    },
    {
      "inputs": [],
      "name": "get_owner",
      "outputs": [
        {
          "internalType": "address payable",
          "name": "",
          "type": "address"
        }
      ],
      "stateMutability": "view",
      "type": "function"
    },
    {
      "inputs": [],
      "name": "get_bid",
      "outputs": [
        {
          "internalType": "uint256",
          "name": "",
          "type": "uint256"
        }
      ],
      "stateMutability": "view",
      "type": "function"
    },
    {
      "inputs": [],
      "name": "get_num_bidders",
      "outputs": [
        {
          "internalType": "uint256",
          "name": "",
          "type": "uint256"
        }
      ],
      "stateMutability": "view",
      "type": "function"
    },
    {
      "inputs": [],
      "name": "get_highest_bidder",
      "outputs": [
        {
          "internalType": "address payable",
          "name": "",
          "type": "address"
        }
      ],
      "stateMutability": "view",
      "type": "function"
    },
    {
      "inputs": [],
      "name": "withdraw",
      "outputs": [
        {
          "internalType": "bool",
          "name": "",
          "type": "bool"
        }
      ],
      "stateMutability": "nonpayable",
      "type": "function"
    },
    {
      "inputs": [],
      "name": "destruct_auction",
      "outputs": [
        {
          "internalType": "bool",
          "name": "",
          "type": "bool"
        }
      ],
      "stateMutability": "nonpayable",
      "type": "function"
    },
    {
      "inputs": [],
      "name": "bid",
      "outputs": [
        {
          "internalType": "bool",
          "name": "",
          "type": "bool"
        }
      ],
      "stateMutability": "payable",
      "type": "function"
    }
  ],
  "bytecode": "0x608060405234801561001057600080fd5b50610a6c806100206000396000f3fe6080604052600436106100a75760003560e01c8063a9447c3311610064578063a9447c33146101d1578063ba8c86b014610261578063bbafd3d41461028c578063c458b65a146102b9578063c486456c146102e4578063fc8c36a61461031a576100a7565b8063098cbde2146100ac5780630ac298dc146100d75780630d11b852146101185780631998aeef146101595780633ccfd60b1461017957806378f45340146101a6575b600080fd5b3480156100b857600080fd5b506100c1610345565b6040518082815260200191505060405180910390f35b3480156100e357600080fd5b506100ec6103ab565b604051808273ffffffffffffffffffffffffffffffffffffffff16815260200191505060405180910390f35b34801561012457600080fd5b5061012d6103d4565b604051808273ffffffffffffffffffffffffffffffffffffffff16815260200191505060405180910390f35b610161610436565b60405180821515815260200191505060405180910390f35b34801561018557600080fd5b5061018e61044a565b60405180821515815260200191505060405180910390f35b3480156101b257600080fd5b506101bb61072f565b6040518082815260200191505060405180910390f35b3480156101dd57600080fd5b506101e6610735565b6040518080602001828103825283818151815260200191508051906020019080838360005b8381101561022657808201518184015260208101905061020b565b50505050905090810190601f1680156102535780820380516001836020036101000a031916815260200191505b509250505060405180910390f35b34801561026d57600080fd5b506102766107d9565b6040518082815260200191505060405180910390f35b34801561029857600080fd5b506102a16107df565b60405180821515815260200191505060405180910390f35b3480156102c557600080fd5b506102ce61096b565b6040518082815260200191505060405180910390f35b3480156102f057600080fd5b506102f9610971565b6040518082600081111561030957fe5b815260200191505060405180910390f35b34801561032657600080fd5b5061032f610984565b6040518082815260200191505060405180910390f35b60008060009054906101000a900473ffffffffffffffffffffffffffffffffffffffff1673ffffffffffffffffffffffffffffffffffffffff163373ffffffffffffffffffffffffffffffffffffffff16146103a057600080fd5b600780549050905090565b60008060009054906101000a900473ffffffffffffffffffffffffffffffffffffffff16905090565b60003373ffffffffffffffffffffffffffffffffffffffff163373ffffffffffffffffffffffffffffffffffffffff161461040e57600080fd5b600460009054906101000a900473ffffffffffffffffffffffffffffffffffffffff16905090565b600060025442111561044757600080fd5b90565b600060025442116104a6576040517f08c379a00000000000000000000000000000000000000000000000000000000081526004018080602001828103825260248152602001806109f06024913960400191505060405180910390fd5b6000600860003373ffffffffffffffffffffffffffffffffffffffff1673ffffffffffffffffffffffffffffffffffffffff168152602001908152602001600020541161055b576040517f08c379a000000000000000000000000000000000000000000000000000000000815260040180806020018281038252601c8152602001807f596f752068617665206e6f2062696420746f2077697468647261772e0000000081525060200191505060405180910390fd5b600460009054906101000a900473ffffffffffffffffffffffffffffffffffffffff1673ffffffffffffffffffffffffffffffffffffffff163373ffffffffffffffffffffffffffffffffffffffff161415610602576040517f08c379a0000000000000000000000000000000000000000000000000000000008152600401808060200182810382526023815260200180610a146023913960400191505060405180910390fd5b6000600860003373ffffffffffffffffffffffffffffffffffffffff1673ffffffffffffffffffffffffffffffffffffffff1681526020019081526020016000205490506000600860003373ffffffffffffffffffffffffffffffffffffffff1673ffffffffffffffffffffffffffffffffffffffff168152602001908152602001600020819055503373ffffffffffffffffffffffffffffffffffffffff166108fc829081150290604051600060405180830381858888f193505050501580156106d1573d6000803e3d6000fd5b507f2f174ca282119315c59efaf21147aef438581dabdeb498198ae28964373dd8bc3382604051808373ffffffffffffffffffffffffffffffffffffffff1681526020018281526020019250505060405180910390a1600191505090565b60015481565b6006806000018054600181600116156101000203166002900480601f0160208091040260200160405190810160405280929190818152602001828054600181600116156101000203166002900480156107cf5780601f106107a4576101008083540402835291602001916107cf565b820191906000526020600020905b8154815290600101906020018083116107b257829003601f168201915b5050505050905081565b60055481565b60008060009054906101000a900473ffffffffffffffffffffffffffffffffffffffff1673ffffffffffffffffffffffffffffffffffffffff163373ffffffffffffffffffffffffffffffffffffffff161461083a57600080fd5b6002544211610894576040517f08c379a00000000000000000000000000000000000000000000000000000000081526004018080602001828103825260248152602001806109cc6024913960400191505060405180910390fd5b60005b60078054905081101561093157600060086000600784815481106108b757fe5b9060005260206000200160009054906101000a900473ffffffffffffffffffffffffffffffffffffffff1673ffffffffffffffffffffffffffffffffffffffff1673ffffffffffffffffffffffffffffffffffffffff168152602001908152602001600020541461092457fe5b8080600101915050610897565b5060008054906101000a900473ffffffffffffffffffffffffffffffffffffffff1673ffffffffffffffffffffffffffffffffffffffff16ff5b60025481565b600960009054906101000a900460ff1681565b6000600860003373ffffffffffffffffffffffffffffffffffffffff1673ffffffffffffffffffffffffffffffffffffffff1681526020019081526020016000205490509056fe41756374696f6e207374696c6c206f70656e2e2043616e6e6f742064657374727563742e41756374696f6e207374696c6c206f70656e2e2043616e6e6f742077697468647261772e596f7520776f6e2c20796f752063616e6e6f742077697468647261772066756e64732ea2646970667358221220abe0b20cb26e7966c39c9aa9cc4961440b33196670ad813c6cfcf1778672b4e864736f6c63430007050033",
  "immutableReferences": {},
  "source": "pragma solidity ^0.7.5;                //declares compiler version \r\n\r\ncontract Auction{                       //defines a contract with name Auction\r\n    //State variable declarations, similar to global variables in other languages \r\n    address payable internal auction_owner;     //Auction owner's address, where winning bid will be sent\r\n    uint256 public auction_start;       //Start and end epoch times for auction\r\n    uint256 public auction_end;\r\n    uint256 internal highestBid;          //Highest bid amount in wei\r\n    address payable internal highestBidder;       //Ethereum address of highest bidder\r\n    uint256 public minimum_price;      //Min. bid for auctions other than Dutch\r\n\r\n    enum auction_state{                 //Enum representing auction state\r\n        STARTED\r\n    }\r\n    \r\n    struct item{\r\n        string item_name;\r\n    }\r\n    \r\n    item public auction_item; \r\n    address[] bidders;                  //Dynamic array storing bidders addresses\r\n    mapping(address=>uint) internal bids; //Mapping that maps address of bidder with their bid\r\n    auction_state public STATE;         //Represents auction state, open or closed (cancelled)\r\n    \r\n    modifier ongoing_auction(){\r\n        require(block.timestamp<=auction_end);\r\n        _;\r\n    }\r\n    \r\n    modifier only_owner(){\r\n        require(msg.sender == auction_owner);\r\n        _;\r\n    }\r\n\r\n    modifier admin(){\r\n        require(msg.sender == msg.sender); //WHEN WE HAVE AN ADMIN ACCOUNT WE WILL PUT THE ADDRESS HERE\r\n        _;\r\n    }\r\n    \r\n    function get_owner() public view returns(address payable) {\r\n        return auction_owner;\r\n    }\r\n\r\n    function get_bid() public view returns(uint){\r\n        return bids[msg.sender];\r\n    }\r\n    \r\n    function get_num_bidders() public view only_owner returns(uint256) {\r\n        return bidders.length;\r\n    }\r\n\r\n    function get_highest_bidder() public view admin returns(address payable) {\r\n        return highestBidder;\r\n    }\r\n\r\n    function withdraw() public returns (bool) {\r\n        require(block.timestamp > auction_end, \"Auction still open. Cannot withdraw.\");\r\n        require(bids[msg.sender] > 0, \"You have no bid to withdraw.\");\r\n        require(msg.sender != highestBidder, \"You won, you cannot withdraw funds.\");\r\n        uint amount = bids[msg.sender];\r\n        bids[msg.sender] = 0;\r\n        msg.sender.transfer(amount);\r\n        emit WithdrawalEvent(msg.sender, amount);\r\n        return true;\r\n    }\r\n\r\n    function destruct_auction() external only_owner returns (bool) {\r\n        require(block.timestamp > auction_end, \"Auction still open. Cannot destruct.\");\r\n        for (uint i = 0; i < bidders.length; i++){\r\n            assert(bids[bidders[i]] == 0);\r\n        }\r\n        //selfdestruct removes the contract code from the blockchain and sends\r\n        //all remaining ether to the specified address. This is cheaper than \r\n        //just sending the funds and leaving the contract as it actually costs \r\n        //negative gas somehow. \r\n        selfdestruct(auction_owner);\r\n        return true;\r\n    }\r\n\r\n    function bid() public payable virtual ongoing_auction returns (bool) {}\r\n    \r\n    event BidEvent(address indexed highestBidder, uint256 highestBid);\r\n    event WithdrawalEvent(address withdrawer, uint256 amount);\r\n    \r\n}\r\n",
  "sourcePath": "C:\\Users\\Mitch\\Documents\\School\\4th year\\Capstone\\blockchain_auction\\bca_solidity\\contracts\\Auction.sol",
  "compiler": {
    "name": "solc",
    "version": "0.7.5+commit.eb77ed08.Emscripten.clang"
  },
  "schemaVersion": "3.3.1",
  "updatedAt": "2020-11-23T22:47:56.743Z",
  "devdoc": {
    "kind": "dev",
    "methods": {},
    "version": 1
  },
  "userdoc": {
    "kind": "user",
    "methods": {},
    "version": 1
  }
}