{
  "contractName": "ChannelAuction",
  "abi": [
    {
      "inputs": [
        {
          "internalType": "uint256",
          "name": "_biddingTime",
          "type": "uint256"
        },
        {
          "internalType": "address payable",
          "name": "_owner",
          "type": "address"
        },
        {
          "internalType": "string",
          "name": "_itemName",
          "type": "string"
        },
        {
          "internalType": "uint256",
          "name": "_startBid",
          "type": "uint256"
        }
      ],
      "payable": false,
      "stateMutability": "nonpayable",
      "type": "constructor"
    },
    {
      "anonymous": false,
      "inputs": [
        {
          "indexed": true,
          "internalType": "address",
          "name": "highestBidder",
          "type": "address"
        },
        {
          "indexed": false,
          "internalType": "uint256",
          "name": "highestBid",
          "type": "uint256"
        }
      ],
      "name": "BidEvent",
      "type": "event"
    },
    {
      "anonymous": false,
      "inputs": [
        {
          "indexed": false,
          "internalType": "address",
          "name": "withdrawer",
          "type": "address"
        },
        {
          "indexed": false,
          "internalType": "uint256",
          "name": "amount",
          "type": "uint256"
        }
      ],
      "name": "WithdrawalEvent",
      "type": "event"
    },
    {
      "constant": true,
      "inputs": [],
      "name": "STATE",
      "outputs": [
        {
          "internalType": "enum Auction.auction_state",
          "name": "",
          "type": "uint8"
        }
      ],
      "payable": false,
      "stateMutability": "view",
      "type": "function"
    },
    {
      "constant": true,
      "inputs": [],
      "name": "auction_end",
      "outputs": [
        {
          "internalType": "uint256",
          "name": "",
          "type": "uint256"
        }
      ],
      "payable": false,
      "stateMutability": "view",
      "type": "function"
    },
    {
      "constant": true,
      "inputs": [],
      "name": "auction_item",
      "outputs": [
        {
          "internalType": "string",
          "name": "item_name",
          "type": "string"
        }
      ],
      "payable": false,
      "stateMutability": "view",
      "type": "function"
    },
    {
      "constant": true,
      "inputs": [],
      "name": "auction_start",
      "outputs": [
        {
          "internalType": "uint256",
          "name": "",
          "type": "uint256"
        }
      ],
      "payable": false,
      "stateMutability": "view",
      "type": "function"
    },
    {
      "constant": true,
      "inputs": [
        {
          "internalType": "address",
          "name": "",
          "type": "address"
        }
      ],
      "name": "bids",
      "outputs": [
        {
          "internalType": "uint256",
          "name": "",
          "type": "uint256"
        }
      ],
      "payable": false,
      "stateMutability": "view",
      "type": "function"
    },
    {
      "constant": true,
      "inputs": [],
      "name": "current_price",
      "outputs": [
        {
          "internalType": "uint256",
          "name": "",
          "type": "uint256"
        }
      ],
      "payable": false,
      "stateMutability": "view",
      "type": "function"
    },
    {
      "constant": false,
      "inputs": [],
      "name": "destruct_auction",
      "outputs": [
        {
          "internalType": "bool",
          "name": "",
          "type": "bool"
        }
      ],
      "payable": false,
      "stateMutability": "nonpayable",
      "type": "function"
    },
    {
      "constant": false,
      "inputs": [],
      "name": "get_num_bidders",
      "outputs": [
        {
          "internalType": "uint256",
          "name": "",
          "type": "uint256"
        }
      ],
      "payable": false,
      "stateMutability": "nonpayable",
      "type": "function"
    },
    {
      "constant": true,
      "inputs": [],
      "name": "get_owner",
      "outputs": [
        {
          "internalType": "address payable",
          "name": "",
          "type": "address"
        }
      ],
      "payable": false,
      "stateMutability": "view",
      "type": "function"
    },
    {
      "constant": true,
      "inputs": [],
      "name": "highestBid",
      "outputs": [
        {
          "internalType": "uint256",
          "name": "",
          "type": "uint256"
        }
      ],
      "payable": false,
      "stateMutability": "view",
      "type": "function"
    },
    {
      "constant": true,
      "inputs": [],
      "name": "highestBidder",
      "outputs": [
        {
          "internalType": "address",
          "name": "",
          "type": "address"
        }
      ],
      "payable": false,
      "stateMutability": "view",
      "type": "function"
    },
    {
      "constant": true,
      "inputs": [],
      "name": "minimum_price",
      "outputs": [
        {
          "internalType": "uint256",
          "name": "",
          "type": "uint256"
        }
      ],
      "payable": false,
      "stateMutability": "view",
      "type": "function"
    },
    {
      "constant": false,
      "inputs": [],
      "name": "withdraw",
      "outputs": [
        {
          "internalType": "bool",
          "name": "",
          "type": "bool"
        }
      ],
      "payable": false,
      "stateMutability": "nonpayable",
      "type": "function"
    },
    {
      "constant": false,
      "inputs": [],
      "name": "bid",
      "outputs": [
        {
          "internalType": "bool",
          "name": "",
          "type": "bool"
        }
      ],
      "payable": true,
      "stateMutability": "payable",
      "type": "function"
    }
  ],
  "bytecode": "0x608060405234801561001057600080fd5b50604051610cc5380380610cc58339818101604052608081101561003357600080fd5b8101908080519060200190929190805190602001909291908051604051939291908464010000000082111561006757600080fd5b8382019150602082018581111561007d57600080fd5b825186600182028301116401000000008211171561009a57600080fd5b8083526020830192505050908051906020019080838360005b838110156100ce5780820151818401526020810190506100b3565b50505050905090810190601f1680156100fb5780820380516001836020036101000a031916815260200191505b5060405260200180519060200190929190505050826000806101000a81548173ffffffffffffffffffffffffffffffffffffffff021916908373ffffffffffffffffffffffffffffffffffffffff16021790555042600181905550603c8402600154016002819055506001600960006101000a81548160ff0219169083600181111561018357fe5b021790555081600660000190805190602001906101a19291906101ba565b50600060058190555080600a819055505050505061025f565b828054600181600116156101000203166002900490600052602060002090601f016020900481019282601f106101fb57805160ff1916838001178555610229565b82800160010185558215610229579182015b8281111561022857825182559160200191906001019061020d565b5b509050610236919061023a565b5090565b61025c91905b80821115610258576000816000905550600101610240565b5090565b90565b610a578061026e6000396000f3fe6080604052600436106100dd5760003560e01c8063a9447c331161007f578063bbafd3d411610059578063bbafd3d414610382578063c458b65a146103b1578063c486456c146103dc578063d57bde7914610415576100dd565b8063a9447c331461029c578063ab2b31371461032c578063ba8c86b014610357576100dd565b80633ccfd60b116100bb5780633ccfd60b1461018657806362ea82db146101b557806378f453401461021a57806391f9015714610245576100dd565b8063098cbde2146100e25780630ac298dc1461010d5780631998aeef14610164575b600080fd5b3480156100ee57600080fd5b506100f7610440565b6040518082815260200191505060405180910390f35b34801561011957600080fd5b506101226104a6565b604051808273ffffffffffffffffffffffffffffffffffffffff1673ffffffffffffffffffffffffffffffffffffffff16815260200191505060405180910390f35b61016c6104cf565b604051808215151515815260200191505060405180910390f35b34801561019257600080fd5b5061019b6104e3565b604051808215151515815260200191505060405180910390f35b3480156101c157600080fd5b50610204600480360360208110156101d857600080fd5b81019080803573ffffffffffffffffffffffffffffffffffffffff169060200190929190505050610737565b6040518082815260200191505060405180910390f35b34801561022657600080fd5b5061022f61074f565b6040518082815260200191505060405180910390f35b34801561025157600080fd5b5061025a610755565b604051808273ffffffffffffffffffffffffffffffffffffffff1673ffffffffffffffffffffffffffffffffffffffff16815260200191505060405180910390f35b3480156102a857600080fd5b506102b161077b565b6040518080602001828103825283818151815260200191508051906020019080838360005b838110156102f15780820151818401526020810190506102d6565b50505050905090810190601f16801561031e5780820380516001836020036101000a031916815260200191505b509250505060405180910390f35b34801561033857600080fd5b5061034161081f565b6040518082815260200191505060405180910390f35b34801561036357600080fd5b5061036c610825565b6040518082815260200191505060405180910390f35b34801561038e57600080fd5b5061039761082b565b604051808215151515815260200191505060405180910390f35b3480156103bd57600080fd5b506103c66109bb565b6040518082815260200191505060405180910390f35b3480156103e857600080fd5b506103f16109c1565b6040518082600181111561040157fe5b60ff16815260200191505060405180910390f35b34801561042157600080fd5b5061042a6109d4565b6040518082815260200191505060405180910390f35b60008060009054906101000a900473ffffffffffffffffffffffffffffffffffffffff1673ffffffffffffffffffffffffffffffffffffffff163373ffffffffffffffffffffffffffffffffffffffff161461049b57600080fd5b600780549050905090565b60008060009054906101000a900473ffffffffffffffffffffffffffffffffffffffff16905090565b60006002544211156104e057600080fd5b90565b6000600254421161053f576040517f08c379a00000000000000000000000000000000000000000000000000000000081526004018080602001828103825260248152602001806109ff6024913960400191505060405180910390fd5b6000600860003373ffffffffffffffffffffffffffffffffffffffff1673ffffffffffffffffffffffffffffffffffffffff16815260200190815260200160002054116105f4576040517f08c379a000000000000000000000000000000000000000000000000000000000815260040180806020018281038252601c8152602001807f596f752068617665206e6f2062696420746f2077697468647261772e0000000081525060200191505060405180910390fd5b6000600860003373ffffffffffffffffffffffffffffffffffffffff1673ffffffffffffffffffffffffffffffffffffffff1681526020019081526020016000205490506000600860003373ffffffffffffffffffffffffffffffffffffffff1673ffffffffffffffffffffffffffffffffffffffff168152602001908152602001600020819055503373ffffffffffffffffffffffffffffffffffffffff166108fc829081150290604051600060405180830381858888f193505050501580156106c3573d6000803e3d6000fd5b507f2f174ca282119315c59efaf21147aef438581dabdeb498198ae28964373dd8bc3382604051808373ffffffffffffffffffffffffffffffffffffffff1673ffffffffffffffffffffffffffffffffffffffff1681526020018281526020019250505060405180910390a1600191505090565b60086020528060005260406000206000915090505481565b60015481565b600460009054906101000a900473ffffffffffffffffffffffffffffffffffffffff1681565b6006806000018054600181600116156101000203166002900480601f0160208091040260200160405190810160405280929190818152602001828054600181600116156101000203166002900480156108155780601f106107ea57610100808354040283529160200191610815565b820191906000526020600020905b8154815290600101906020018083116107f857829003601f168201915b5050505050905081565b600a5481565b60055481565b60008060009054906101000a900473ffffffffffffffffffffffffffffffffffffffff1673ffffffffffffffffffffffffffffffffffffffff163373ffffffffffffffffffffffffffffffffffffffff161461088657600080fd5b60025442116108e0576040517f08c379a00000000000000000000000000000000000000000000000000000000081526004018080602001828103825260248152602001806109db6024913960400191505060405180910390fd5b60008090505b600780549050811015610980576000600860006007848154811061090657fe5b9060005260206000200160009054906101000a900473ffffffffffffffffffffffffffffffffffffffff1673ffffffffffffffffffffffffffffffffffffffff1673ffffffffffffffffffffffffffffffffffffffff168152602001908152602001600020541461097357fe5b80806001019150506108e6565b506000809054906101000a900473ffffffffffffffffffffffffffffffffffffffff1673ffffffffffffffffffffffffffffffffffffffff16ff5b60025481565b600960009054906101000a900460ff1681565b6003548156fe41756374696f6e207374696c6c206f70656e2e2043616e6e6f742064657374727563742e41756374696f6e207374696c6c206f70656e2e2043616e6e6f742077697468647261772ea265627a7a723158201d30235ad235f74f2783d8997d8b54b9654207166587d859e133637f6c3af76064736f6c63430005100032",
  "source": "pragma solidity ^0.5.16;\r\n\r\nimport \"./Auction.sol\";\r\n\r\ncontract ChannelAuction is Auction{\r\n\r\n    //If we want it to be a legitimate channel auction, \r\n    //ChannelAuction will need additional parameters like the rate at which the price is lowered \r\n    //How much is the value being decremented by and how often is the decrement taking place?\r\n    //Alternatively, we can have a static buy now price (like ebay or games like FIFA)\r\n    \r\n    uint256 public current_price;\r\n\r\n    constructor (uint _biddingTime, address payable _owner, string memory _itemName, uint _startBid) public {\r\n        auction_owner = _owner;\r\n        auction_start = now; \r\n        auction_end = auction_start + _biddingTime * 1 minutes;\r\n        STATE = auction_state.STARTED;\r\n        auction_item.item_name = _itemName;\r\n        minimum_price = 0;\r\n        current_price = _startBid;\r\n    }\r\n\r\n    function bid() public payable ongoing_auction returns (bool) {\r\n        //Functionality to come\r\n    }\r\n\r\n}",
  "sourcePath": "C:/Users/Mitch/Documents/School/4th year/Capstone/blockchain_auction/bca_solidity/contracts/ChannelAuction.sol",
  "compiler": {
    "name": "solc",
    "version": "0.5.16+commit.9c3226ce.Emscripten.clang"
  },
  "schemaVersion": "3.3.1",
  "updatedAt": "2020-11-09T16:47:29.039Z",
  "devdoc": {
    "methods": {}
  },
  "userdoc": {
    "methods": {}
  }
}