{
  "contractName": "ChannelAuction",
  "abi": [
    {
      "inputs": [
        {
          "internalType": "uint256",
          "name": "_biddingTime",
          "type": "uint256"
        },
        {
          "internalType": "address payable",
          "name": "_owner",
          "type": "address"
        },
        {
          "internalType": "string",
          "name": "_itemName",
          "type": "string"
        },
        {
          "internalType": "uint256",
          "name": "_startBid",
          "type": "uint256"
        }
      ],
      "stateMutability": "nonpayable",
      "type": "constructor"
    },
    {
      "anonymous": false,
      "inputs": [
        {
          "indexed": true,
          "internalType": "address",
          "name": "highestBidder",
          "type": "address"
        },
        {
          "indexed": false,
          "internalType": "uint256",
          "name": "highestBid",
          "type": "uint256"
        }
      ],
      "name": "BidEvent",
      "type": "event"
    },
    {
      "anonymous": false,
      "inputs": [
        {
          "indexed": false,
          "internalType": "address",
          "name": "withdrawer",
          "type": "address"
        },
        {
          "indexed": false,
          "internalType": "uint256",
          "name": "amount",
          "type": "uint256"
        }
      ],
      "name": "WithdrawalEvent",
      "type": "event"
    },
    {
      "inputs": [],
      "name": "STATE",
      "outputs": [
        {
          "internalType": "enum Auction.auction_state",
          "name": "",
          "type": "uint8"
        }
      ],
      "stateMutability": "view",
      "type": "function"
    },
    {
      "inputs": [],
      "name": "auction_end",
      "outputs": [
        {
          "internalType": "uint256",
          "name": "",
          "type": "uint256"
        }
      ],
      "stateMutability": "view",
      "type": "function"
    },
    {
      "inputs": [],
      "name": "auction_item",
      "outputs": [
        {
          "internalType": "string",
          "name": "item_name",
          "type": "string"
        }
      ],
      "stateMutability": "view",
      "type": "function"
    },
    {
      "inputs": [],
      "name": "auction_start",
      "outputs": [
        {
          "internalType": "uint256",
          "name": "",
          "type": "uint256"
        }
      ],
      "stateMutability": "view",
      "type": "function"
    },
    {
      "inputs": [],
      "name": "current_price",
      "outputs": [
        {
          "internalType": "uint256",
          "name": "",
          "type": "uint256"
        }
      ],
      "stateMutability": "view",
      "type": "function"
    },
    {
      "inputs": [],
      "name": "destruct_auction",
      "outputs": [
        {
          "internalType": "bool",
          "name": "",
          "type": "bool"
        }
      ],
      "stateMutability": "nonpayable",
      "type": "function"
    },
    {
      "inputs": [],
      "name": "get_bid",
      "outputs": [
        {
          "internalType": "uint256",
          "name": "",
          "type": "uint256"
        }
      ],
      "stateMutability": "view",
      "type": "function"
    },
    {
      "inputs": [],
      "name": "get_highest_bidder",
      "outputs": [
        {
          "internalType": "address payable",
          "name": "",
          "type": "address"
        }
      ],
      "stateMutability": "view",
      "type": "function"
    },
    {
      "inputs": [],
      "name": "get_num_bidders",
      "outputs": [
        {
          "internalType": "uint256",
          "name": "",
          "type": "uint256"
        }
      ],
      "stateMutability": "view",
      "type": "function"
    },
    {
      "inputs": [],
      "name": "get_owner",
      "outputs": [
        {
          "internalType": "address payable",
          "name": "",
          "type": "address"
        }
      ],
      "stateMutability": "view",
      "type": "function"
    },
    {
      "inputs": [],
      "name": "minimum_price",
      "outputs": [
        {
          "internalType": "uint256",
          "name": "",
          "type": "uint256"
        }
      ],
      "stateMutability": "view",
      "type": "function"
    },
    {
      "inputs": [],
      "name": "withdraw",
      "outputs": [
        {
          "internalType": "bool",
          "name": "",
          "type": "bool"
        }
      ],
      "stateMutability": "nonpayable",
      "type": "function"
    },
    {
      "inputs": [],
      "name": "bid",
      "outputs": [
        {
          "internalType": "bool",
          "name": "",
          "type": "bool"
        }
      ],
      "stateMutability": "payable",
      "type": "function"
    }
  ],
  "bytecode": "0x608060405234801561001057600080fd5b50604051610d2c380380610d2c8339818101604052608081101561003357600080fd5b8101908080519060200190929190805190602001909291908051604051939291908464010000000082111561006757600080fd5b8382019150602082018581111561007d57600080fd5b825186600182028301116401000000008211171561009a57600080fd5b8083526020830192505050908051906020019080838360005b838110156100ce5780820151818401526020810190506100b3565b50505050905090810190601f1680156100fb5780820380516001836020036101000a031916815260200191505b5060405260200180519060200190929190505050826000806101000a81548173ffffffffffffffffffffffffffffffffffffffff021916908373ffffffffffffffffffffffffffffffffffffffff16021790555042600181905550603c8402600154016002819055506000600960006101000a81548160ff0219169083600081111561018357fe5b021790555081600660000190805190602001906101a19291906101ba565b50600060058190555080600a8190555050505050610265565b828054600181600116156101000203166002900490600052602060002090601f0160209004810192826101f05760008555610237565b82601f1061020957805160ff1916838001178555610237565b82800160010185558215610237579182015b8281111561023657825182559160200191906001019061021b565b5b5090506102449190610248565b5090565b5b80821115610261576000816000905550600101610249565b5090565b610ab8806102746000396000f3fe6080604052600436106100c25760003560e01c8063a9447c331161007f578063bbafd3d411610059578063bbafd3d4146102d2578063c458b65a146102ff578063c486456c1461032a578063fc8c36a614610360576100c2565b8063a9447c33146101ec578063ab2b31371461027c578063ba8c86b0146102a7576100c2565b8063098cbde2146100c75780630ac298dc146100f25780630d11b852146101335780631998aeef146101745780633ccfd60b1461019457806378f45340146101c1575b600080fd5b3480156100d357600080fd5b506100dc61038b565b6040518082815260200191505060405180910390f35b3480156100fe57600080fd5b506101076103f1565b604051808273ffffffffffffffffffffffffffffffffffffffff16815260200191505060405180910390f35b34801561013f57600080fd5b5061014861041a565b604051808273ffffffffffffffffffffffffffffffffffffffff16815260200191505060405180910390f35b61017c61047c565b60405180821515815260200191505060405180910390f35b3480156101a057600080fd5b506101a9610490565b60405180821515815260200191505060405180910390f35b3480156101cd57600080fd5b506101d6610775565b6040518082815260200191505060405180910390f35b3480156101f857600080fd5b5061020161077b565b6040518080602001828103825283818151815260200191508051906020019080838360005b83811015610241578082015181840152602081019050610226565b50505050905090810190601f16801561026e5780820380516001836020036101000a031916815260200191505b509250505060405180910390f35b34801561028857600080fd5b5061029161081f565b6040518082815260200191505060405180910390f35b3480156102b357600080fd5b506102bc610825565b6040518082815260200191505060405180910390f35b3480156102de57600080fd5b506102e761082b565b60405180821515815260200191505060405180910390f35b34801561030b57600080fd5b506103146109b7565b6040518082815260200191505060405180910390f35b34801561033657600080fd5b5061033f6109bd565b6040518082600081111561034f57fe5b815260200191505060405180910390f35b34801561036c57600080fd5b506103756109d0565b6040518082815260200191505060405180910390f35b60008060009054906101000a900473ffffffffffffffffffffffffffffffffffffffff1673ffffffffffffffffffffffffffffffffffffffff163373ffffffffffffffffffffffffffffffffffffffff16146103e657600080fd5b600780549050905090565b60008060009054906101000a900473ffffffffffffffffffffffffffffffffffffffff16905090565b60003373ffffffffffffffffffffffffffffffffffffffff163373ffffffffffffffffffffffffffffffffffffffff161461045457600080fd5b600460009054906101000a900473ffffffffffffffffffffffffffffffffffffffff16905090565b600060025442111561048d57600080fd5b90565b600060025442116104ec576040517f08c379a0000000000000000000000000000000000000000000000000000000008152600401808060200182810382526024815260200180610a3c6024913960400191505060405180910390fd5b6000600860003373ffffffffffffffffffffffffffffffffffffffff1673ffffffffffffffffffffffffffffffffffffffff16815260200190815260200160002054116105a1576040517f08c379a000000000000000000000000000000000000000000000000000000000815260040180806020018281038252601c8152602001807f596f752068617665206e6f2062696420746f2077697468647261772e0000000081525060200191505060405180910390fd5b600460009054906101000a900473ffffffffffffffffffffffffffffffffffffffff1673ffffffffffffffffffffffffffffffffffffffff163373ffffffffffffffffffffffffffffffffffffffff161415610648576040517f08c379a0000000000000000000000000000000000000000000000000000000008152600401808060200182810382526023815260200180610a606023913960400191505060405180910390fd5b6000600860003373ffffffffffffffffffffffffffffffffffffffff1673ffffffffffffffffffffffffffffffffffffffff1681526020019081526020016000205490506000600860003373ffffffffffffffffffffffffffffffffffffffff1673ffffffffffffffffffffffffffffffffffffffff168152602001908152602001600020819055503373ffffffffffffffffffffffffffffffffffffffff166108fc829081150290604051600060405180830381858888f19350505050158015610717573d6000803e3d6000fd5b507f2f174ca282119315c59efaf21147aef438581dabdeb498198ae28964373dd8bc3382604051808373ffffffffffffffffffffffffffffffffffffffff1681526020018281526020019250505060405180910390a1600191505090565b60015481565b6006806000018054600181600116156101000203166002900480601f0160208091040260200160405190810160405280929190818152602001828054600181600116156101000203166002900480156108155780601f106107ea57610100808354040283529160200191610815565b820191906000526020600020905b8154815290600101906020018083116107f857829003601f168201915b5050505050905081565b600a5481565b60055481565b60008060009054906101000a900473ffffffffffffffffffffffffffffffffffffffff1673ffffffffffffffffffffffffffffffffffffffff163373ffffffffffffffffffffffffffffffffffffffff161461088657600080fd5b60025442116108e0576040517f08c379a0000000000000000000000000000000000000000000000000000000008152600401808060200182810382526024815260200180610a186024913960400191505060405180910390fd5b60005b60078054905081101561097d576000600860006007848154811061090357fe5b9060005260206000200160009054906101000a900473ffffffffffffffffffffffffffffffffffffffff1673ffffffffffffffffffffffffffffffffffffffff1673ffffffffffffffffffffffffffffffffffffffff168152602001908152602001600020541461097057fe5b80806001019150506108e3565b5060008054906101000a900473ffffffffffffffffffffffffffffffffffffffff1673ffffffffffffffffffffffffffffffffffffffff16ff5b60025481565b600960009054906101000a900460ff1681565b6000600860003373ffffffffffffffffffffffffffffffffffffffff1673ffffffffffffffffffffffffffffffffffffffff1681526020019081526020016000205490509056fe41756374696f6e207374696c6c206f70656e2e2043616e6e6f742064657374727563742e41756374696f6e207374696c6c206f70656e2e2043616e6e6f742077697468647261772e596f7520776f6e2c20796f752063616e6e6f742077697468647261772066756e64732ea2646970667358221220696364d49a52102aae7a99c101cf5db84ec6003dfb744939e9b57742c53c75aa64736f6c63430007050033",
  "immutableReferences": {},
  "source": "pragma solidity ^0.7.5;\r\n\r\nimport \"./Auction.sol\";\r\n\r\ncontract ChannelAuction is Auction{\r\n\r\n    //If we want it to be a legitimate channel auction, \r\n    //ChannelAuction will need additional parameters like the rate at which the price is lowered \r\n    //How much is the value being decremented by and how often is the decrement taking place?\r\n    //Alternatively, we can have a static buy now price (like ebay or games like FIFA)\r\n    \r\n    uint256 public current_price;\r\n\r\n    constructor (uint _biddingTime, address payable _owner, string memory _itemName, uint _startBid) public {\r\n        auction_owner = _owner;\r\n        auction_start = block.timestamp; \r\n        auction_end = auction_start + _biddingTime * 1 minutes;\r\n        STATE = auction_state.STARTED;\r\n        auction_item.item_name = _itemName;\r\n        minimum_price = 0;\r\n        current_price = _startBid;\r\n    }\r\n\r\n    function bid() public payable ongoing_auction override returns (bool) {\r\n        //Functionality to come\r\n    }\r\n\r\n}",
  "sourcePath": "C:/Users/Mitch/Documents/School/4th year/Capstone/blockchain_auction/bca_solidity/contracts/ChannelAuction.sol",
  "compiler": {
    "name": "solc",
    "version": "0.7.5+commit.eb77ed08.Emscripten.clang"
  },
  "schemaVersion": "3.3.1",
  "updatedAt": "2020-11-23T22:47:56.751Z",
  "devdoc": {
    "kind": "dev",
    "methods": {},
    "version": 1
  },
  "userdoc": {
    "kind": "user",
    "methods": {},
    "version": 1
  }
}