{
  "contractName": "DutchAuction",
  "abi": [
    {
      "inputs": [
        {
          "internalType": "address payable",
          "name": "_owner",
          "type": "address"
        },
        {
          "internalType": "uint256",
          "name": "_biddingTime",
          "type": "uint256"
        },
        {
          "internalType": "uint256",
          "name": "_startPrice",
          "type": "uint256"
        },
        {
          "internalType": "uint256",
          "name": "_rate",
          "type": "uint256"
        },
        {
          "internalType": "uint256",
          "name": "_minBid",
          "type": "uint256"
        }
      ],
      "stateMutability": "nonpayable",
      "type": "constructor"
    },
    {
      "anonymous": false,
      "inputs": [
        {
          "indexed": true,
          "internalType": "address",
          "name": "bidder",
          "type": "address"
        },
        {
          "indexed": false,
          "internalType": "uint256",
          "name": "bid",
          "type": "uint256"
        }
      ],
      "name": "BidEvent",
      "type": "event"
    },
    {
      "anonymous": false,
      "inputs": [
        {
          "indexed": false,
          "internalType": "address",
          "name": "withdrawer",
          "type": "address"
        },
        {
          "indexed": false,
          "internalType": "uint256",
          "name": "amount",
          "type": "uint256"
        }
      ],
      "name": "WithdrawalEvent",
      "type": "event"
    },
    {
      "inputs": [],
      "name": "auctionEnd",
      "outputs": [
        {
          "internalType": "uint256",
          "name": "",
          "type": "uint256"
        }
      ],
      "stateMutability": "view",
      "type": "function"
    },
    {
      "inputs": [],
      "name": "auctionStart",
      "outputs": [
        {
          "internalType": "uint256",
          "name": "",
          "type": "uint256"
        }
      ],
      "stateMutability": "view",
      "type": "function"
    },
    {
      "inputs": [],
      "name": "destruct_auction",
      "outputs": [
        {
          "internalType": "bool",
          "name": "",
          "type": "bool"
        }
      ],
      "stateMutability": "nonpayable",
      "type": "function"
    },
    {
      "inputs": [],
      "name": "get_bid",
      "outputs": [
        {
          "internalType": "uint256",
          "name": "",
          "type": "uint256"
        }
      ],
      "stateMutability": "view",
      "type": "function"
    },
    {
      "inputs": [],
      "name": "get_highest_bidder",
      "outputs": [
        {
          "internalType": "address payable",
          "name": "",
          "type": "address"
        }
      ],
      "stateMutability": "view",
      "type": "function"
    },
    {
      "inputs": [],
      "name": "get_num_bidders",
      "outputs": [
        {
          "internalType": "uint256",
          "name": "",
          "type": "uint256"
        }
      ],
      "stateMutability": "view",
      "type": "function"
    },
    {
      "inputs": [],
      "name": "get_owner",
      "outputs": [
        {
          "internalType": "address payable",
          "name": "",
          "type": "address"
        }
      ],
      "stateMutability": "view",
      "type": "function"
    },
    {
      "inputs": [],
      "name": "minPrice",
      "outputs": [
        {
          "internalType": "uint256",
          "name": "",
          "type": "uint256"
        }
      ],
      "stateMutability": "view",
      "type": "function"
    },
    {
      "inputs": [],
      "name": "ongoingAuction",
      "outputs": [
        {
          "internalType": "bool",
          "name": "",
          "type": "bool"
        }
      ],
      "stateMutability": "view",
      "type": "function"
    },
    {
      "inputs": [],
      "name": "rate",
      "outputs": [
        {
          "internalType": "uint256",
          "name": "",
          "type": "uint256"
        }
      ],
      "stateMutability": "view",
      "type": "function"
    },
    {
      "inputs": [],
      "name": "startPrice",
      "outputs": [
        {
          "internalType": "uint256",
          "name": "",
          "type": "uint256"
        }
      ],
      "stateMutability": "view",
      "type": "function"
    },
    {
      "inputs": [],
      "name": "withdraw",
      "outputs": [
        {
          "internalType": "bool",
          "name": "",
          "type": "bool"
        }
      ],
      "stateMutability": "nonpayable",
      "type": "function"
    },
    {
      "inputs": [],
      "name": "bid",
      "outputs": [
        {
          "internalType": "bool",
          "name": "",
          "type": "bool"
        }
      ],
      "stateMutability": "payable",
      "type": "function"
    },
    {
      "inputs": [],
      "name": "getHighestBid",
      "outputs": [
        {
          "internalType": "uint256",
          "name": "",
          "type": "uint256"
        }
      ],
      "stateMutability": "view",
      "type": "function"
    }
  ],
  "bytecode": "0x608060405234801561001057600080fd5b50604051611063380380611063833981810160405260a081101561003357600080fd5b810190808051906020019092919080519060200190929190805190602001909291908051906020019092919080519060200190929190505050846000806101000a81548173ffffffffffffffffffffffffffffffffffffffff021916908373ffffffffffffffffffffffffffffffffffffffff16021790555042600181905550603c8402600154016002819055508060058190555082600a81905550816009819055506001600660006101000a81548160ff0219169083151502179055505050505050610f5e806101056000396000f3fe6080604052600436106100dd5760003560e01c80634979440a1161007f578063bbafd3d411610059578063bbafd3d4146102b5578063e45be8eb146102e2578063f1a9af891461030d578063fc8c36a614610338576100dd565b80634979440a146102325780634f245ef71461025d57806358b5744e14610288576100dd565b80631998aeef116100bb5780631998aeef1461018f5780632a24f46c146101af5780632c4e722e146101da5780633ccfd60b14610205576100dd565b8063098cbde2146100e25780630ac298dc1461010d5780630d11b8521461014e575b600080fd5b3480156100ee57600080fd5b506100f7610363565b6040518082815260200191505060405180910390f35b34801561011957600080fd5b506101226103c9565b604051808273ffffffffffffffffffffffffffffffffffffffff16815260200191505060405180910390f35b34801561015a57600080fd5b506101636103f2565b604051808273ffffffffffffffffffffffffffffffffffffffff16815260200191505060405180910390f35b610197610475565b60405180821515815260200191505060405180910390f35b3480156101bb57600080fd5b506101c461071b565b6040518082815260200191505060405180910390f35b3480156101e657600080fd5b506101ef610721565b6040518082815260200191505060405180910390f35b34801561021157600080fd5b5061021a610727565b60405180821515815260200191505060405180910390f35b34801561023e57600080fd5b50610247610c23565b6040518082815260200191505060405180910390f35b34801561026957600080fd5b50610272610c2d565b6040518082815260200191505060405180910390f35b34801561029457600080fd5b5061029d610c33565b60405180821515815260200191505060405180910390f35b3480156102c157600080fd5b506102ca610c46565b60405180821515815260200191505060405180910390f35b3480156102ee57600080fd5b506102f7610e21565b6040518082815260200191505060405180910390f35b34801561031957600080fd5b50610322610e27565b6040518082815260200191505060405180910390f35b34801561034457600080fd5b5061034d610e2d565b6040518082815260200191505060405180910390f35b60008060009054906101000a900473ffffffffffffffffffffffffffffffffffffffff1673ffffffffffffffffffffffffffffffffffffffff163373ffffffffffffffffffffffffffffffffffffffff16146103be57600080fd5b600780549050905090565b60008060009054906101000a900473ffffffffffffffffffffffffffffffffffffffff16905090565b60008060009054906101000a900473ffffffffffffffffffffffffffffffffffffffff1673ffffffffffffffffffffffffffffffffffffffff163373ffffffffffffffffffffffffffffffffffffffff161461044d57600080fd5b600460009054906101000a900473ffffffffffffffffffffffffffffffffffffffff16905090565b6000600660009054906101000a900460ff166104f9576040517f08c379a00000000000000000000000000000000000000000000000000000000081526004018080602001828103825260128152602001807f41756374696f6e2068617320656e6465642e000000000000000000000000000081525060200191505060405180910390fd5b6002544210610570576040517f08c379a00000000000000000000000000000000000000000000000000000000081526004018080602001828103825260128152602001807f41756374696f6e2068617320656e6465642e000000000000000000000000000081525060200191505060405180910390fd5b600154420360095402600a540334101561058957600080fd5b60055434101561059857600080fd5b3460038190555033600460006101000a81548173ffffffffffffffffffffffffffffffffffffffff021916908373ffffffffffffffffffffffffffffffffffffffff1602179055506007339080600181540180825580915050600190039060005260206000200160009091909190916101000a81548173ffffffffffffffffffffffffffffffffffffffff021916908373ffffffffffffffffffffffffffffffffffffffff16021790555034600860003373ffffffffffffffffffffffffffffffffffffffff1673ffffffffffffffffffffffffffffffffffffffff168152602001908152602001600020819055506000600660006101000a81548160ff021916908315150217905550600460009054906101000a900473ffffffffffffffffffffffffffffffffffffffff1673ffffffffffffffffffffffffffffffffffffffff167f0d993d4f8a84158f5329713d6d13ef54e77b325040c887c8b3e565cfd0cd3e216003546040518082815260200191505060405180910390a26001905090565b60025481565b60095481565b60006002544211610783576040517f08c379a0000000000000000000000000000000000000000000000000000000008152600401808060200182810382526024815260200180610e996024913960400191505060405180910390fd5b600460009054906101000a900473ffffffffffffffffffffffffffffffffffffffff1673ffffffffffffffffffffffffffffffffffffffff163373ffffffffffffffffffffffffffffffffffffffff16141561082a576040517f08c379a0000000000000000000000000000000000000000000000000000000008152600401808060200182810382526023815260200180610ebd6023913960400191505060405180910390fd5b60008060009054906101000a900473ffffffffffffffffffffffffffffffffffffffff1673ffffffffffffffffffffffffffffffffffffffff163373ffffffffffffffffffffffffffffffffffffffff1614156109ac57600060086000600460009054906101000a900473ffffffffffffffffffffffffffffffffffffffff1673ffffffffffffffffffffffffffffffffffffffff1673ffffffffffffffffffffffffffffffffffffffff168152602001908152602001600020541161093b576040517f08c379a0000000000000000000000000000000000000000000000000000000008152600401808060200182810382526024815260200180610f056024913960400191505060405180910390fd5b6003549050600060086000600460009054906101000a900473ffffffffffffffffffffffffffffffffffffffff1673ffffffffffffffffffffffffffffffffffffffff1673ffffffffffffffffffffffffffffffffffffffff16815260200190815260200160002081905550610ae9565b6000600860003373ffffffffffffffffffffffffffffffffffffffff1673ffffffffffffffffffffffffffffffffffffffff1681526020019081526020016000205411610a61576040517f08c379a000000000000000000000000000000000000000000000000000000000815260040180806020018281038252601c8152602001807f596f752068617665206e6f2062696420746f2077697468647261772e0000000081525060200191505060405180910390fd5b600860003373ffffffffffffffffffffffffffffffffffffffff1673ffffffffffffffffffffffffffffffffffffffff1681526020019081526020016000205490506000600860003373ffffffffffffffffffffffffffffffffffffffff1673ffffffffffffffffffffffffffffffffffffffff168152602001908152602001600020819055505b60003373ffffffffffffffffffffffffffffffffffffffff168260405180600001905060006040518083038185875af1925050503d8060008114610b49576040519150601f19603f3d011682016040523d82523d6000602084013e610b4e565b606091505b5050905080610bc5576040517f08c379a00000000000000000000000000000000000000000000000000000000081526004018080602001828103825260108152602001807f5472616e73666572206661696c65642e0000000000000000000000000000000081525060200191505060405180910390fd5b7f2f174ca282119315c59efaf21147aef438581dabdeb498198ae28964373dd8bc3383604051808373ffffffffffffffffffffffffffffffffffffffff1681526020018281526020019250505060405180910390a160019250505090565b6000600354905090565b60015481565b600660009054906101000a900460ff1681565b60008060009054906101000a900473ffffffffffffffffffffffffffffffffffffffff1673ffffffffffffffffffffffffffffffffffffffff163373ffffffffffffffffffffffffffffffffffffffff1614610ca157600080fd5b6002544211610cfb576040517f08c379a0000000000000000000000000000000000000000000000000000000008152600401808060200182810382526024815260200180610e756024913960400191505060405180910390fd5b60005b600780549050811015610de75760006008600060078481548110610d1e57fe5b9060005260206000200160009054906101000a900473ffffffffffffffffffffffffffffffffffffffff1673ffffffffffffffffffffffffffffffffffffffff1673ffffffffffffffffffffffffffffffffffffffff1681526020019081526020016000205414610dda576040517f08c379a0000000000000000000000000000000000000000000000000000000008152600401808060200182810382526025815260200180610ee06025913960400191505060405180910390fd5b8080600101915050610cfe565b5060008054906101000a900473ffffffffffffffffffffffffffffffffffffffff1673ffffffffffffffffffffffffffffffffffffffff16ff5b60055481565b600a5481565b6000600860003373ffffffffffffffffffffffffffffffffffffffff1673ffffffffffffffffffffffffffffffffffffffff1681526020019081526020016000205490509056fe41756374696f6e207374696c6c206f70656e2e2043616e6e6f742064657374727563742e41756374696f6e207374696c6c206f70656e2e2043616e6e6f742077697468647261772e596f7520776f6e2c20796f752063616e6e6f742077697468647261772066756e64732e416c6c20626964732068617665206e6f74206265656e2077697468647261776e207965742e596f75206861766520616c72656164792077697468647261776e2077696e6e696e67732ea2646970667358221220ed51840ac2bca872b2ef66659f5a43afe18fc8c73b595b398ec4db2c6ac524fe64736f6c63430007050033",
  "immutableReferences": {},
  "source": "// SPDX-License-Identifier: MIT\npragma solidity ^0.7.5;\n\nimport \"./Auction.sol\";\n\ncontract DutchAuction is Auction{\n\t\n\tuint public rate;\n\tuint public startPrice;\n\t//might want to also add a var for the winning bid here\n\n\tconstructor (address payable _owner, uint _biddingTime, uint _startPrice, uint _rate, uint _minBid) {\n\t\tauctionOwner = _owner;\n\t\tauctionStart = block.timestamp; \n\t\tauctionEnd = auctionStart + _biddingTime * 1 minutes;\n\t\tminPrice = _minBid;\n\t\tstartPrice = _startPrice;\n\t\trate = _rate;\n\t\tongoingAuction = true;\n\t}\n\n\tfunction bid() public payable ongoing_auction override returns (bool) {\n\t\trequire(msg.value >= startPrice - (rate * (block.timestamp - auctionStart)));\n\t\trequire(msg.value >= minPrice);\n\n\t\thighestBid = msg.value;\n\t\thighestBidder = msg.sender;\n\t\tbidders.push(msg.sender);\n\t\tbids[msg.sender] = msg.value;\n\n\t\tongoingAuction = false;\n\n\t\temit BidEvent(highestBidder, highestBid);\n\t\treturn true;\n\t}\n\n\t// what's the best way to set this so that it can only be called when an auction is over?\n    function getHighestBid() public view returns (uint256){\n        return highestBid; \n    }\n}",
  "sourcePath": "/home/bkitor/Projects/blockchain_auction/bca_react/contracts/DutchAuction.sol",
  "compiler": {
    "name": "solc",
    "version": "0.7.5+commit.eb77ed08.Emscripten.clang"
  },
  "schemaVersion": "3.3.2",
  "updatedAt": "2021-02-12T05:19:46.642Z",
  "devdoc": {
    "kind": "dev",
    "methods": {},
    "version": 1
  },
  "userdoc": {
    "kind": "user",
    "methods": {},
    "version": 1
  }
}