{
  "contractName": "SqueezeAuction",
  "abi": [
    {
      "inputs": [
        {
          "internalType": "address payable",
          "name": "_owner",
          "type": "address"
        },
        {
          "internalType": "uint256",
          "name": "_biddingTime",
          "type": "uint256"
        },
        {
          "internalType": "uint256",
          "name": "_startLow",
          "type": "uint256"
        },
        {
          "internalType": "uint256",
          "name": "_startHigh",
          "type": "uint256"
        },
        {
          "internalType": "uint256",
          "name": "_rate",
          "type": "uint256"
        }
      ],
      "stateMutability": "nonpayable",
      "type": "constructor"
    },
    {
      "anonymous": false,
      "inputs": [
        {
          "indexed": true,
          "internalType": "address",
          "name": "bidder",
          "type": "address"
        },
        {
          "indexed": false,
          "internalType": "uint256",
          "name": "bid",
          "type": "uint256"
        }
      ],
      "name": "BidEvent",
      "type": "event"
    },
    {
      "anonymous": false,
      "inputs": [
        {
          "indexed": false,
          "internalType": "address",
          "name": "withdrawer",
          "type": "address"
        },
        {
          "indexed": false,
          "internalType": "uint256",
          "name": "amount",
          "type": "uint256"
        }
      ],
      "name": "WithdrawalEvent",
      "type": "event"
    },
    {
      "inputs": [],
      "name": "auctionEnd",
      "outputs": [
        {
          "internalType": "uint256",
          "name": "",
          "type": "uint256"
        }
      ],
      "stateMutability": "view",
      "type": "function"
    },
    {
      "inputs": [],
      "name": "auctionStart",
      "outputs": [
        {
          "internalType": "uint256",
          "name": "",
          "type": "uint256"
        }
      ],
      "stateMutability": "view",
      "type": "function"
    },
    {
      "inputs": [],
      "name": "destruct_auction",
      "outputs": [
        {
          "internalType": "bool",
          "name": "",
          "type": "bool"
        }
      ],
      "stateMutability": "nonpayable",
      "type": "function"
    },
    {
      "inputs": [],
      "name": "get_bid",
      "outputs": [
        {
          "internalType": "uint256",
          "name": "",
          "type": "uint256"
        }
      ],
      "stateMutability": "view",
      "type": "function"
    },
    {
      "inputs": [],
      "name": "get_highest_bidder",
      "outputs": [
        {
          "internalType": "address payable",
          "name": "",
          "type": "address"
        }
      ],
      "stateMutability": "view",
      "type": "function"
    },
    {
      "inputs": [],
      "name": "get_num_bidders",
      "outputs": [
        {
          "internalType": "uint256",
          "name": "",
          "type": "uint256"
        }
      ],
      "stateMutability": "view",
      "type": "function"
    },
    {
      "inputs": [],
      "name": "get_owner",
      "outputs": [
        {
          "internalType": "address payable",
          "name": "",
          "type": "address"
        }
      ],
      "stateMutability": "view",
      "type": "function"
    },
    {
      "inputs": [],
      "name": "get_withdrawn",
      "outputs": [
        {
          "internalType": "bool",
          "name": "",
          "type": "bool"
        }
      ],
      "stateMutability": "view",
      "type": "function"
    },
    {
      "inputs": [],
      "name": "minPrice",
      "outputs": [
        {
          "internalType": "uint256",
          "name": "",
          "type": "uint256"
        }
      ],
      "stateMutability": "view",
      "type": "function"
    },
    {
      "inputs": [],
      "name": "rate",
      "outputs": [
        {
          "internalType": "uint256",
          "name": "",
          "type": "uint256"
        }
      ],
      "stateMutability": "view",
      "type": "function"
    },
    {
      "inputs": [],
      "name": "startPrice",
      "outputs": [
        {
          "internalType": "uint256",
          "name": "",
          "type": "uint256"
        }
      ],
      "stateMutability": "view",
      "type": "function"
    },
    {
      "inputs": [],
      "name": "withdraw",
      "outputs": [
        {
          "internalType": "bool",
          "name": "",
          "type": "bool"
        }
      ],
      "stateMutability": "nonpayable",
      "type": "function"
    },
    {
      "inputs": [],
      "name": "bid",
      "outputs": [
        {
          "internalType": "bool",
          "name": "",
          "type": "bool"
        }
      ],
      "stateMutability": "payable",
      "type": "function"
    },
    {
      "inputs": [],
      "name": "bid_high",
      "outputs": [
        {
          "internalType": "bool",
          "name": "",
          "type": "bool"
        }
      ],
      "stateMutability": "payable",
      "type": "function"
    }
  ],
  "bytecode": "0x608060405234801561001057600080fd5b506040516116fc3803806116fc833981810160405260a081101561003357600080fd5b810190808051906020019092919080519060200190929190805190602001909291908051906020019092919080519060200190929190505050846000806101000a81548173ffffffffffffffffffffffffffffffffffffffff021916908373ffffffffffffffffffffffffffffffffffffffff16021790555042600181905550603c840260015401600281905550826005819055506001600660006101000a81548160ff02191690831515021790555081600a819055508060098190555050505050506115f7806101056000396000f3fe6080604052600436106100dd5760003560e01c80633ccfd60b1161007f578063bbafd3d411610059578063bbafd3d4146102aa578063e45be8eb146102d7578063f1a9af8914610302578063fc8c36a61461032d576100dd565b80633ccfd60b146102325780634f245ef71461025f57806396b5f1dc1461028a576100dd565b80630d11b852116100bb5780630d11b8521461017b5780631998aeef146101bc5780632a24f46c146101dc5780632c4e722e14610207576100dd565b80630729763d146100e2578063098cbde21461010f5780630ac298dc1461013a575b600080fd5b3480156100ee57600080fd5b506100f7610358565b60405180821515815260200191505060405180910390f35b34801561011b57600080fd5b506101246103af565b6040518082815260200191505060405180910390f35b34801561014657600080fd5b5061014f610415565b604051808273ffffffffffffffffffffffffffffffffffffffff16815260200191505060405180910390f35b34801561018757600080fd5b5061019061043e565b604051808273ffffffffffffffffffffffffffffffffffffffff16815260200191505060405180910390f35b6101c46104c1565b60405180821515815260200191505060405180910390f35b3480156101e857600080fd5b506101f161093d565b6040518082815260200191505060405180910390f35b34801561021357600080fd5b5061021c610943565b6040518082815260200191505060405180910390f35b34801561023e57600080fd5b50610247610949565b60405180821515815260200191505060405180910390f35b34801561026b57600080fd5b50610274610fc3565b6040518082815260200191505060405180910390f35b610292610fc9565b60405180821515815260200191505060405180910390f35b3480156102b657600080fd5b506102bf6112c8565b60405180821515815260200191505060405180910390f35b3480156102e357600080fd5b506102ec6114b7565b6040518082815260200191505060405180910390f35b34801561030e57600080fd5b506103176114bd565b6040518082815260200191505060405180910390f35b34801561033957600080fd5b506103426114c3565b6040518082815260200191505060405180910390f35b6000600860003373ffffffffffffffffffffffffffffffffffffffff1673ffffffffffffffffffffffffffffffffffffffff16815260200190815260200160002060010160009054906101000a900460ff16905090565b60008060009054906101000a900473ffffffffffffffffffffffffffffffffffffffff1673ffffffffffffffffffffffffffffffffffffffff163373ffffffffffffffffffffffffffffffffffffffff161461040a57600080fd5b600780549050905090565b60008060009054906101000a900473ffffffffffffffffffffffffffffffffffffffff16905090565b60008060009054906101000a900473ffffffffffffffffffffffffffffffffffffffff1673ffffffffffffffffffffffffffffffffffffffff163373ffffffffffffffffffffffffffffffffffffffff161461049957600080fd5b600460009054906101000a900473ffffffffffffffffffffffffffffffffffffffff16905090565b6000600660009054906101000a900460ff16610545576040517f08c379a00000000000000000000000000000000000000000000000000000000081526004018080602001828103825260128152602001807f41756374696f6e2068617320656e6465642e000000000000000000000000000081525060200191505060405180910390fd5b60025442106105bc576040517f08c379a00000000000000000000000000000000000000000000000000000000081526004018080602001828103825260128152602001807f41756374696f6e2068617320656e6465642e000000000000000000000000000081525060200191505060405180910390fd5b60035434600860003373ffffffffffffffffffffffffffffffffffffffff1673ffffffffffffffffffffffffffffffffffffffff168152602001908152602001600020600001540111610677576040517f08c379a000000000000000000000000000000000000000000000000000000000815260040180806020018281038252600c8152602001807f42696420746f6f206c6f772e000000000000000000000000000000000000000081525060200191505060405180910390fd5b6000600860003373ffffffffffffffffffffffffffffffffffffffff1673ffffffffffffffffffffffffffffffffffffffff1681526020019081526020016000206000015414156107ae576007339080600181540180825580915050600190039060005260206000200160009091909190916101000a81548173ffffffffffffffffffffffffffffffffffffffff021916908373ffffffffffffffffffffffffffffffffffffffff160217905550604051806040016040528034815260200160001515815250600860003373ffffffffffffffffffffffffffffffffffffffff1673ffffffffffffffffffffffffffffffffffffffff1681526020019081526020016000206000820151816000015560208201518160010160006101000a81548160ff02191690831515021790555090505061083a565b34600860003373ffffffffffffffffffffffffffffffffffffffff1673ffffffffffffffffffffffffffffffffffffffff1681526020019081526020016000206000015401600860003373ffffffffffffffffffffffffffffffffffffffff1673ffffffffffffffffffffffffffffffffffffffff168152602001908152602001600020600001819055505b33600460006101000a81548173ffffffffffffffffffffffffffffffffffffffff021916908373ffffffffffffffffffffffffffffffffffffffff160217905550600860003373ffffffffffffffffffffffffffffffffffffffff1673ffffffffffffffffffffffffffffffffffffffff16815260200190815260200160002060000154600381905550600460009054906101000a900473ffffffffffffffffffffffffffffffffffffffff1673ffffffffffffffffffffffffffffffffffffffff167f0d993d4f8a84158f5329713d6d13ef54e77b325040c887c8b3e565cfd0cd3e216003546040518082815260200191505060405180910390a26001905090565b60025481565b60095481565b60006002544211806109685750600660009054906101000a900460ff16155b6109bd576040517f08c379a00000000000000000000000000000000000000000000000000000000081526004018080602001828103825260248152602001806115326024913960400191505060405180910390fd5b600460009054906101000a900473ffffffffffffffffffffffffffffffffffffffff1673ffffffffffffffffffffffffffffffffffffffff163373ffffffffffffffffffffffffffffffffffffffff161415610a64576040517f08c379a00000000000000000000000000000000000000000000000000000000081526004018080602001828103825260238152602001806115566023913960400191505060405180910390fd5b6000151560086000600460009054906101000a900473ffffffffffffffffffffffffffffffffffffffff1673ffffffffffffffffffffffffffffffffffffffff1673ffffffffffffffffffffffffffffffffffffffff16815260200190815260200160002060010160009054906101000a900460ff1615151480610b34575060008054906101000a900473ffffffffffffffffffffffffffffffffffffffff1673ffffffffffffffffffffffffffffffffffffffff163373ffffffffffffffffffffffffffffffffffffffff1614155b610b89576040517f08c379a000000000000000000000000000000000000000000000000000000000815260040180806020018281038252602481526020018061159e6024913960400191505060405180910390fd5b60001515600860003373ffffffffffffffffffffffffffffffffffffffff1673ffffffffffffffffffffffffffffffffffffffff16815260200190815260200160002060010160009054906101000a900460ff1615151480610c36575060008054906101000a900473ffffffffffffffffffffffffffffffffffffffff1673ffffffffffffffffffffffffffffffffffffffff163373ffffffffffffffffffffffffffffffffffffffff16145b610ca8576040517f08c379a000000000000000000000000000000000000000000000000000000000815260040180806020018281038252601c8152602001807f596f752068617665206e6f2062696420746f2077697468647261772e0000000081525060200191505060405180910390fd5b60008060009054906101000a900473ffffffffffffffffffffffffffffffffffffffff1673ffffffffffffffffffffffffffffffffffffffff163373ffffffffffffffffffffffffffffffffffffffff161415610de85760086000600460009054906101000a900473ffffffffffffffffffffffffffffffffffffffff1673ffffffffffffffffffffffffffffffffffffffff1673ffffffffffffffffffffffffffffffffffffffff168152602001908152602001600020600001549050600160086000600460009054906101000a900473ffffffffffffffffffffffffffffffffffffffff1673ffffffffffffffffffffffffffffffffffffffff1673ffffffffffffffffffffffffffffffffffffffff16815260200190815260200160002060010160006101000a81548160ff021916908315150217905550610e89565b600860003373ffffffffffffffffffffffffffffffffffffffff1673ffffffffffffffffffffffffffffffffffffffff1681526020019081526020016000206000015490506001600860003373ffffffffffffffffffffffffffffffffffffffff1673ffffffffffffffffffffffffffffffffffffffff16815260200190815260200160002060010160006101000a81548160ff0219169083151502179055505b60003373ffffffffffffffffffffffffffffffffffffffff168260405180600001905060006040518083038185875af1925050503d8060008114610ee9576040519150601f19603f3d011682016040523d82523d6000602084013e610eee565b606091505b5050905080610f65576040517f08c379a00000000000000000000000000000000000000000000000000000000081526004018080602001828103825260108152602001807f5472616e73666572206661696c65642e0000000000000000000000000000000081525060200191505060405180910390fd5b7f2f174ca282119315c59efaf21147aef438581dabdeb498198ae28964373dd8bc3383604051808373ffffffffffffffffffffffffffffffffffffffff1681526020018281526020019250505060405180910390a160019250505090565b60015481565b6000600660009054906101000a900460ff1661104d576040517f08c379a00000000000000000000000000000000000000000000000000000000081526004018080602001828103825260128152602001807f41756374696f6e2068617320656e6465642e000000000000000000000000000081525060200191505060405180910390fd5b60025442106110c4576040517f08c379a00000000000000000000000000000000000000000000000000000000081526004018080602001828103825260128152602001807f41756374696f6e2068617320656e6465642e000000000000000000000000000081525060200191505060405180910390fd5b600154420360095402600a5403341015806110ed5750600154420360095402600a540360055410155b6110f657600080fd5b60055434101561110557600080fd5b3460038190555033600460006101000a81548173ffffffffffffffffffffffffffffffffffffffff021916908373ffffffffffffffffffffffffffffffffffffffff1602179055506007339080600181540180825580915050600190039060005260206000200160009091909190916101000a81548173ffffffffffffffffffffffffffffffffffffffff021916908373ffffffffffffffffffffffffffffffffffffffff160217905550604051806040016040528034815260200160001515815250600860003373ffffffffffffffffffffffffffffffffffffffff1673ffffffffffffffffffffffffffffffffffffffff1681526020019081526020016000206000820151816000015560208201518160010160006101000a81548160ff0219169083151502179055509050506000600660006101000a81548160ff021916908315150217905550600460009054906101000a900473ffffffffffffffffffffffffffffffffffffffff1673ffffffffffffffffffffffffffffffffffffffff167f0d993d4f8a84158f5329713d6d13ef54e77b325040c887c8b3e565cfd0cd3e216003546040518082815260200191505060405180910390a26001905090565b60008060009054906101000a900473ffffffffffffffffffffffffffffffffffffffff1673ffffffffffffffffffffffffffffffffffffffff163373ffffffffffffffffffffffffffffffffffffffff161461132357600080fd5b600254421161137d576040517f08c379a000000000000000000000000000000000000000000000000000000000815260040180806020018281038252602481526020018061150e6024913960400191505060405180910390fd5b60005b60078054905081101561147d576001151560086000600784815481106113a257fe5b9060005260206000200160009054906101000a900473ffffffffffffffffffffffffffffffffffffffff1673ffffffffffffffffffffffffffffffffffffffff1673ffffffffffffffffffffffffffffffffffffffff16815260200190815260200160002060010160009054906101000a900460ff16151514611470576040517f08c379a00000000000000000000000000000000000000000000000000000000081526004018080602001828103825260258152602001806115796025913960400191505060405180910390fd5b8080600101915050611380565b5060008054906101000a900473ffffffffffffffffffffffffffffffffffffffff1673ffffffffffffffffffffffffffffffffffffffff16ff5b60055481565b600a5481565b6000600860003373ffffffffffffffffffffffffffffffffffffffff1673ffffffffffffffffffffffffffffffffffffffff1681526020019081526020016000206000015490509056fe41756374696f6e207374696c6c206f70656e2e2043616e6e6f742064657374727563742e41756374696f6e207374696c6c206f70656e2e2043616e6e6f742077697468647261772e596f7520776f6e2c20796f752063616e6e6f742077697468647261772066756e64732e416c6c20626964732068617665206e6f74206265656e2077697468647261776e207965742e596f75206861766520616c72656164792077697468647261776e2077696e6e696e67732ea2646970667358221220c6ec1d2d755bd1e687cbd28b19fd4107d1423815c2e2ee93314b7e564f5e083764736f6c63430007050033",
  "immutableReferences": {},
  "source": "pragma solidity ^0.7.5;\r\n\r\nimport \"./Auction.sol\";\r\n\r\ncontract SqueezeAuction is Auction{\r\n    \r\n    uint public rate;\r\n    uint public startPrice;\r\n\r\n    constructor (address payable _owner, uint _biddingTime, uint _startLow, uint _startHigh, uint _rate) public {\r\n        auctionOwner = _owner;\r\n        auctionStart = block.timestamp; \r\n        auctionEnd = auctionStart + _biddingTime * 1 minutes;\r\n        minPrice = _startLow;\r\n        ongoingAuction = true;\r\n        startPrice = _startHigh;\r\n        rate = _rate;\r\n    }\r\n\r\n    function bid() public payable ongoing_auction override returns (bool) {\r\n        require(bids[msg.sender].value + msg.value > highestBid, \"Bid too low.\");\r\n        \r\n        if(bids[msg.sender].value == 0){\r\n            bidders.push(msg.sender);\r\n            bids[msg.sender] = Bid(msg.value, false);\r\n        } else {\r\n            bids[msg.sender].value = bids[msg.sender].value + msg.value;\r\n        }\r\n\r\n        highestBidder = msg.sender;\r\n        highestBid = bids[msg.sender].value;\r\n\r\n        emit BidEvent(highestBidder, highestBid);\r\n        return true;\r\n    }\r\n\r\n    function bid_high() public payable ongoing_auction returns (bool) {\r\n        require(msg.value >= startPrice - (rate * (block.timestamp - auctionStart)) || minPrice >= startPrice - (rate * (block.timestamp - auctionStart)));\r\n        require(msg.value >= minPrice);\r\n\r\n        highestBid = msg.value;\r\n        highestBidder = msg.sender;\r\n\r\n        bidders.push(msg.sender);\r\n        bids[msg.sender] = Bid(msg.value, false);\r\n\r\n        ongoingAuction = false;\r\n\r\n        emit BidEvent(highestBidder, highestBid);\r\n        return true;\r\n    }\r\n\r\n}",
  "sourcePath": "/home/mitchcrompton/blockchain_auction/bca_react/contracts/SqueezeAuction.sol",
  "compiler": {
    "name": "solc",
    "version": "0.7.5+commit.eb77ed08.Emscripten.clang"
  },
  "schemaVersion": "3.3.3",
  "updatedAt": "2021-03-01T15:54:01.092Z",
  "devdoc": {
    "kind": "dev",
    "methods": {},
    "version": 1
  },
  "userdoc": {
    "kind": "user",
    "methods": {},
    "version": 1
  }
}