{
  "contractName": "Auction",
  "abi": [
    {
      "anonymous": false,
      "inputs": [
        {
          "indexed": true,
          "internalType": "address",
          "name": "bidder",
          "type": "address"
        },
        {
          "indexed": false,
          "internalType": "uint256",
          "name": "bid",
          "type": "uint256"
        }
      ],
      "name": "BidEvent",
      "type": "event"
    },
    {
      "anonymous": false,
      "inputs": [
        {
          "indexed": false,
          "internalType": "address",
          "name": "withdrawer",
          "type": "address"
        },
        {
          "indexed": false,
          "internalType": "uint256",
          "name": "amount",
          "type": "uint256"
        }
      ],
      "name": "WithdrawalEvent",
      "type": "event"
    },
    {
      "inputs": [],
      "name": "auctionEnd",
      "outputs": [
        {
          "internalType": "uint256",
          "name": "",
          "type": "uint256"
        }
      ],
      "stateMutability": "view",
      "type": "function"
    },
    {
      "inputs": [],
      "name": "auctionStart",
      "outputs": [
        {
          "internalType": "uint256",
          "name": "",
          "type": "uint256"
        }
      ],
      "stateMutability": "view",
      "type": "function"
    },
    {
      "inputs": [],
      "name": "minPrice",
      "outputs": [
        {
          "internalType": "uint256",
          "name": "",
          "type": "uint256"
        }
      ],
      "stateMutability": "view",
      "type": "function"
    },
    {
      "inputs": [],
      "name": "ongoingAuction",
      "outputs": [
        {
          "internalType": "bool",
          "name": "",
          "type": "bool"
        }
      ],
      "stateMutability": "view",
      "type": "function"
    },
    {
      "inputs": [],
      "name": "get_owner",
      "outputs": [
        {
          "internalType": "address payable",
          "name": "",
          "type": "address"
        }
      ],
      "stateMutability": "view",
      "type": "function"
    },
    {
      "inputs": [],
      "name": "get_bid",
      "outputs": [
        {
          "internalType": "uint256",
          "name": "",
          "type": "uint256"
        }
      ],
      "stateMutability": "view",
      "type": "function"
    },
    {
      "inputs": [],
      "name": "get_withdrawn",
      "outputs": [
        {
          "internalType": "bool",
          "name": "",
          "type": "bool"
        }
      ],
      "stateMutability": "view",
      "type": "function"
    },
    {
      "inputs": [],
      "name": "get_num_bidders",
      "outputs": [
        {
          "internalType": "uint256",
          "name": "",
          "type": "uint256"
        }
      ],
      "stateMutability": "view",
      "type": "function"
    },
    {
      "inputs": [],
      "name": "get_highest_bidder",
      "outputs": [
        {
          "internalType": "address payable",
          "name": "",
          "type": "address"
        }
      ],
      "stateMutability": "view",
      "type": "function"
    },
    {
      "inputs": [],
      "name": "withdraw",
      "outputs": [
        {
          "internalType": "bool",
          "name": "",
          "type": "bool"
        }
      ],
      "stateMutability": "nonpayable",
      "type": "function"
    },
    {
      "inputs": [],
      "name": "destruct_auction",
      "outputs": [
        {
          "internalType": "bool",
          "name": "",
          "type": "bool"
        }
      ],
      "stateMutability": "nonpayable",
      "type": "function"
    },
    {
      "inputs": [],
      "name": "bid",
      "outputs": [
        {
          "internalType": "bool",
          "name": "",
          "type": "bool"
        }
      ],
      "stateMutability": "payable",
      "type": "function"
    }
  ],
  "bytecode": "0x608060405234801561001057600080fd5b50610f02806100206000396000f3fe6080604052600436106100a75760003560e01c80633ccfd60b116100645780633ccfd60b146101d15780634f245ef7146101fe57806358b5744e14610229578063bbafd3d414610256578063e45be8eb14610283578063fc8c36a6146102ae576100a7565b80630729763d146100ac578063098cbde2146100d95780630ac298dc146101045780630d11b852146101455780631998aeef146101865780632a24f46c146101a6575b600080fd5b3480156100b857600080fd5b506100c16102d9565b60405180821515815260200191505060405180910390f35b3480156100e557600080fd5b506100ee610330565b6040518082815260200191505060405180910390f35b34801561011057600080fd5b50610119610396565b604051808273ffffffffffffffffffffffffffffffffffffffff16815260200191505060405180910390f35b34801561015157600080fd5b5061015a6103bf565b604051808273ffffffffffffffffffffffffffffffffffffffff16815260200191505060405180910390f35b61018e610442565b60405180821515815260200191505060405180910390f35b3480156101b257600080fd5b506101bb610540565b6040518082815260200191505060405180910390f35b3480156101dd57600080fd5b506101e6610546565b60405180821515815260200191505060405180910390f35b34801561020a57600080fd5b50610213610bc0565b6040518082815260200191505060405180910390f35b34801561023557600080fd5b5061023e610bc6565b60405180821515815260200191505060405180910390f35b34801561026257600080fd5b5061026b610bd9565b60405180821515815260200191505060405180910390f35b34801561028f57600080fd5b50610298610dc8565b6040518082815260200191505060405180910390f35b3480156102ba57600080fd5b506102c3610dce565b6040518082815260200191505060405180910390f35b6000600860003373ffffffffffffffffffffffffffffffffffffffff1673ffffffffffffffffffffffffffffffffffffffff16815260200190815260200160002060010160009054906101000a900460ff16905090565b60008060009054906101000a900473ffffffffffffffffffffffffffffffffffffffff1673ffffffffffffffffffffffffffffffffffffffff163373ffffffffffffffffffffffffffffffffffffffff161461038b57600080fd5b600780549050905090565b60008060009054906101000a900473ffffffffffffffffffffffffffffffffffffffff16905090565b60008060009054906101000a900473ffffffffffffffffffffffffffffffffffffffff1673ffffffffffffffffffffffffffffffffffffffff163373ffffffffffffffffffffffffffffffffffffffff161461041a57600080fd5b600460009054906101000a900473ffffffffffffffffffffffffffffffffffffffff16905090565b6000600660009054906101000a900460ff166104c6576040517f08c379a00000000000000000000000000000000000000000000000000000000081526004018080602001828103825260128152602001807f41756374696f6e2068617320656e6465642e000000000000000000000000000081525060200191505060405180910390fd5b600254421061053d576040517f08c379a00000000000000000000000000000000000000000000000000000000081526004018080602001828103825260128152602001807f41756374696f6e2068617320656e6465642e000000000000000000000000000081525060200191505060405180910390fd5b90565b60025481565b60006002544211806105655750600660009054906101000a900460ff16155b6105ba576040517f08c379a0000000000000000000000000000000000000000000000000000000008152600401808060200182810382526024815260200180610e3d6024913960400191505060405180910390fd5b600460009054906101000a900473ffffffffffffffffffffffffffffffffffffffff1673ffffffffffffffffffffffffffffffffffffffff163373ffffffffffffffffffffffffffffffffffffffff161415610661576040517f08c379a0000000000000000000000000000000000000000000000000000000008152600401808060200182810382526023815260200180610e616023913960400191505060405180910390fd5b6000151560086000600460009054906101000a900473ffffffffffffffffffffffffffffffffffffffff1673ffffffffffffffffffffffffffffffffffffffff1673ffffffffffffffffffffffffffffffffffffffff16815260200190815260200160002060010160009054906101000a900460ff1615151480610731575060008054906101000a900473ffffffffffffffffffffffffffffffffffffffff1673ffffffffffffffffffffffffffffffffffffffff163373ffffffffffffffffffffffffffffffffffffffff1614155b610786576040517f08c379a0000000000000000000000000000000000000000000000000000000008152600401808060200182810382526024815260200180610ea96024913960400191505060405180910390fd5b60001515600860003373ffffffffffffffffffffffffffffffffffffffff1673ffffffffffffffffffffffffffffffffffffffff16815260200190815260200160002060010160009054906101000a900460ff1615151480610833575060008054906101000a900473ffffffffffffffffffffffffffffffffffffffff1673ffffffffffffffffffffffffffffffffffffffff163373ffffffffffffffffffffffffffffffffffffffff16145b6108a5576040517f08c379a000000000000000000000000000000000000000000000000000000000815260040180806020018281038252601c8152602001807f596f752068617665206e6f2062696420746f2077697468647261772e0000000081525060200191505060405180910390fd5b60008060009054906101000a900473ffffffffffffffffffffffffffffffffffffffff1673ffffffffffffffffffffffffffffffffffffffff163373ffffffffffffffffffffffffffffffffffffffff1614156109e55760086000600460009054906101000a900473ffffffffffffffffffffffffffffffffffffffff1673ffffffffffffffffffffffffffffffffffffffff1673ffffffffffffffffffffffffffffffffffffffff168152602001908152602001600020600001549050600160086000600460009054906101000a900473ffffffffffffffffffffffffffffffffffffffff1673ffffffffffffffffffffffffffffffffffffffff1673ffffffffffffffffffffffffffffffffffffffff16815260200190815260200160002060010160006101000a81548160ff021916908315150217905550610a86565b600860003373ffffffffffffffffffffffffffffffffffffffff1673ffffffffffffffffffffffffffffffffffffffff1681526020019081526020016000206000015490506001600860003373ffffffffffffffffffffffffffffffffffffffff1673ffffffffffffffffffffffffffffffffffffffff16815260200190815260200160002060010160006101000a81548160ff0219169083151502179055505b60003373ffffffffffffffffffffffffffffffffffffffff168260405180600001905060006040518083038185875af1925050503d8060008114610ae6576040519150601f19603f3d011682016040523d82523d6000602084013e610aeb565b606091505b5050905080610b62576040517f08c379a00000000000000000000000000000000000000000000000000000000081526004018080602001828103825260108152602001807f5472616e73666572206661696c65642e0000000000000000000000000000000081525060200191505060405180910390fd5b7f2f174ca282119315c59efaf21147aef438581dabdeb498198ae28964373dd8bc3383604051808373ffffffffffffffffffffffffffffffffffffffff1681526020018281526020019250505060405180910390a160019250505090565b60015481565b600660009054906101000a900460ff1681565b60008060009054906101000a900473ffffffffffffffffffffffffffffffffffffffff1673ffffffffffffffffffffffffffffffffffffffff163373ffffffffffffffffffffffffffffffffffffffff1614610c3457600080fd5b6002544211610c8e576040517f08c379a0000000000000000000000000000000000000000000000000000000008152600401808060200182810382526024815260200180610e196024913960400191505060405180910390fd5b60005b600780549050811015610d8e57600115156008600060078481548110610cb357fe5b9060005260206000200160009054906101000a900473ffffffffffffffffffffffffffffffffffffffff1673ffffffffffffffffffffffffffffffffffffffff1673ffffffffffffffffffffffffffffffffffffffff16815260200190815260200160002060010160009054906101000a900460ff16151514610d81576040517f08c379a0000000000000000000000000000000000000000000000000000000008152600401808060200182810382526025815260200180610e846025913960400191505060405180910390fd5b8080600101915050610c91565b5060008054906101000a900473ffffffffffffffffffffffffffffffffffffffff1673ffffffffffffffffffffffffffffffffffffffff16ff5b60055481565b6000600860003373ffffffffffffffffffffffffffffffffffffffff1673ffffffffffffffffffffffffffffffffffffffff1681526020019081526020016000206000015490509056fe41756374696f6e207374696c6c206f70656e2e2043616e6e6f742064657374727563742e41756374696f6e207374696c6c206f70656e2e2043616e6e6f742077697468647261772e596f7520776f6e2c20796f752063616e6e6f742077697468647261772066756e64732e416c6c20626964732068617665206e6f74206265656e2077697468647261776e207965742e596f75206861766520616c72656164792077697468647261776e2077696e6e696e67732ea2646970667358221220c4410d43ba37aea1a920cc2151a28b2e6b584f34fabf3d9d43460f26c372070264736f6c63430007050033",
  "immutableReferences": {},
  "source": "// SPDX-License-Identifier: MIT\npragma solidity ^0.7.5;                //declares compiler version \n\ncontract Auction{                       //defines a contract with name Auction\n    //State variable declarations, similar to global variables in other languages \n    struct Bid {\n        uint256 value;\n        bool withdrawn;\n    }\n\n    address payable internal auctionOwner;     //Auction owner's address, where winning bid will be sent\n    uint256 public auctionStart;       //Start and end epoch times for auction\n    uint256 public auctionEnd;\n    uint256 internal highestBid;          //Highest bid amount in wei\n    address payable internal highestBidder;       //Ethereum address of highest bidder\n    uint256 public minPrice;      //Min. bid for auctions other than Dutch\n    bool public ongoingAuction;\n    \n    address[] bidders;                  //Dynamic array storing bidders addresses\n    mapping(address=>Bid) internal bids; //Mapping that maps address of bidder with their bid\n    \n    modifier ongoing_auction(){\n        require(ongoingAuction, \"Auction has ended.\");\n        require(block.timestamp < auctionEnd, \"Auction has ended.\");\n        _;\n    }\n    \n    modifier only_owner(){\n        require(msg.sender == auctionOwner);\n        _;\n    }\n\n    modifier admin(){\n        require(msg.sender == msg.sender); //WHEN WE HAVE AN ADMIN ACCOUNT WE WILL PUT THE ADDRESS HERE\n        _;\n    }\n    \n    //function payable (){\n    //    revert();\n    //}\n\n    function get_owner() public view returns(address payable) {\n        return auctionOwner;\n    }\n\n    function get_bid() public view returns(uint){\n        return bids[msg.sender].value;\n    }\n\n    function get_withdrawn() public view returns(bool){\n        return bids[msg.sender].withdrawn;\n    }\n    \n    function get_num_bidders() public view only_owner returns(uint256) {\n        return bidders.length;\n    }\n\n    function get_highest_bidder() public view only_owner returns(address payable) {\n        return highestBidder;\n    }\n\n    function withdraw() public returns (bool) {\n        require(block.timestamp > auctionEnd || !ongoingAuction, \"Auction still open. Cannot withdraw.\");\n        require(msg.sender != highestBidder, \"You won, you cannot withdraw funds.\");\n        require(bids[highestBidder].withdrawn == false || msg.sender != auctionOwner, \"You have already withdrawn winnings.\");\n        require(bids[msg.sender].withdrawn == false || msg.sender == auctionOwner, \"You have no bid to withdraw.\");\n        \n        uint amount; \n        if(msg.sender == auctionOwner){\n            amount = bids[highestBidder].value;\n            bids[highestBidder].withdrawn = true;\n        } else {\n            amount = bids[msg.sender].value;\n            bids[msg.sender].withdrawn = true;\n        }\n\n        (bool success, ) = msg.sender.call{value: amount}(\"\");\n        require(success, \"Transfer failed.\");\n        \n        emit WithdrawalEvent(msg.sender, amount);\n        return true;\n    }\n\n    function destruct_auction() external only_owner returns (bool) {\n        require(block.timestamp > auctionEnd, \"Auction still open. Cannot destruct.\");\n        for (uint i = 0; i < bidders.length; i++){\n            require(bids[bidders[i]].withdrawn == true, \"All bids have not been withdrawn yet.\");\n        }\n        selfdestruct(auctionOwner); //will be admin eventually\n        return true;\n    }\n\n    function bid() external payable virtual ongoing_auction returns (bool) {}\n    \n    event BidEvent(address indexed bidder, uint256 bid);\n    event WithdrawalEvent(address withdrawer, uint256 amount);\n}\n",
  "sourcePath": "/home/bkitor/Projects/blockchain_auction/bca_react/contracts/Auction.sol",
  "compiler": {
    "name": "solc",
    "version": "0.7.5+commit.eb77ed08.Emscripten.clang"
  },
  "schemaVersion": "3.3.2",
  "updatedAt": "2021-02-14T19:08:39.061Z",
  "devdoc": {
    "kind": "dev",
    "methods": {},
    "version": 1
  },
  "userdoc": {
    "kind": "user",
    "methods": {},
    "version": 1
  }
}