{
  "contractName": "ChannelAuction",
  "abi": [
    {
      "inputs": [
        {
          "internalType": "address payable",
          "name": "_owner",
          "type": "address"
        },
        {
          "internalType": "uint256",
          "name": "_biddingTime",
          "type": "uint256"
        },
        {
          "internalType": "uint256",
          "name": "_startBid",
          "type": "uint256"
        },
        {
          "internalType": "uint256",
          "name": "_buyNowPrice",
          "type": "uint256"
        }
      ],
      "stateMutability": "nonpayable",
      "type": "constructor"
    },
    {
      "anonymous": false,
      "inputs": [
        {
          "indexed": true,
          "internalType": "address",
          "name": "bidder",
          "type": "address"
        },
        {
          "indexed": false,
          "internalType": "uint256",
          "name": "bid",
          "type": "uint256"
        }
      ],
      "name": "BidEvent",
      "type": "event"
    },
    {
      "anonymous": false,
      "inputs": [
        {
          "indexed": true,
          "internalType": "address",
          "name": "buyer",
          "type": "address"
        },
        {
          "indexed": false,
          "internalType": "uint256",
          "name": "price",
          "type": "uint256"
        }
      ],
      "name": "BuyEvent",
      "type": "event"
    },
    {
      "anonymous": false,
      "inputs": [
        {
          "indexed": false,
          "internalType": "address",
          "name": "withdrawer",
          "type": "address"
        },
        {
          "indexed": false,
          "internalType": "uint256",
          "name": "amount",
          "type": "uint256"
        }
      ],
      "name": "WithdrawalEvent",
      "type": "event"
    },
    {
      "inputs": [],
      "name": "auctionEnd",
      "outputs": [
        {
          "internalType": "uint256",
          "name": "",
          "type": "uint256"
        }
      ],
      "stateMutability": "view",
      "type": "function"
    },
    {
      "inputs": [],
      "name": "auctionStart",
      "outputs": [
        {
          "internalType": "uint256",
          "name": "",
          "type": "uint256"
        }
      ],
      "stateMutability": "view",
      "type": "function"
    },
    {
      "inputs": [],
      "name": "buyNowPrice",
      "outputs": [
        {
          "internalType": "uint256",
          "name": "",
          "type": "uint256"
        }
      ],
      "stateMutability": "view",
      "type": "function"
    },
    {
      "inputs": [],
      "name": "destruct_auction",
      "outputs": [
        {
          "internalType": "bool",
          "name": "",
          "type": "bool"
        }
      ],
      "stateMutability": "nonpayable",
      "type": "function"
    },
    {
      "inputs": [],
      "name": "get_bid",
      "outputs": [
        {
          "internalType": "uint256",
          "name": "",
          "type": "uint256"
        }
      ],
      "stateMutability": "view",
      "type": "function"
    },
    {
      "inputs": [],
      "name": "get_highest_bidder",
      "outputs": [
        {
          "internalType": "address payable",
          "name": "",
          "type": "address"
        }
      ],
      "stateMutability": "view",
      "type": "function"
    },
    {
      "inputs": [],
      "name": "get_num_bidders",
      "outputs": [
        {
          "internalType": "uint256",
          "name": "",
          "type": "uint256"
        }
      ],
      "stateMutability": "view",
      "type": "function"
    },
    {
      "inputs": [],
      "name": "get_owner",
      "outputs": [
        {
          "internalType": "address payable",
          "name": "",
          "type": "address"
        }
      ],
      "stateMutability": "view",
      "type": "function"
    },
    {
      "inputs": [],
      "name": "get_withdrawn",
      "outputs": [
        {
          "internalType": "bool",
          "name": "",
          "type": "bool"
        }
      ],
      "stateMutability": "view",
      "type": "function"
    },
    {
      "inputs": [],
      "name": "minPrice",
      "outputs": [
        {
          "internalType": "uint256",
          "name": "",
          "type": "uint256"
        }
      ],
      "stateMutability": "view",
      "type": "function"
    },
    {
      "inputs": [],
      "name": "ongoingAuction",
      "outputs": [
        {
          "internalType": "bool",
          "name": "",
          "type": "bool"
        }
      ],
      "stateMutability": "view",
      "type": "function"
    },
    {
      "inputs": [],
      "name": "withdraw",
      "outputs": [
        {
          "internalType": "bool",
          "name": "",
          "type": "bool"
        }
      ],
      "stateMutability": "nonpayable",
      "type": "function"
    },
    {
      "inputs": [],
      "name": "bid",
      "outputs": [
        {
          "internalType": "bool",
          "name": "",
          "type": "bool"
        }
      ],
      "stateMutability": "payable",
      "type": "function"
    },
    {
      "inputs": [],
      "name": "buy_now",
      "outputs": [
        {
          "internalType": "bool",
          "name": "",
          "type": "bool"
        }
      ],
      "stateMutability": "payable",
      "type": "function"
    }
  ],
  "bytecode": "0x608060405234801561001057600080fd5b506040516118923803806118928339818101604052608081101561003357600080fd5b8101908080519060200190929190805190602001909291908051906020019092919080519060200190929190505050836000806101000a81548173ffffffffffffffffffffffffffffffffffffffff021916908373ffffffffffffffffffffffffffffffffffffffff16021790555042600181905550603c830260015401600281905550816005819055506001600660006101000a81548160ff021916908315150217905550806009819055505050505061179f806100f36000396000f3fe6080604052600436106100dd5760003560e01c80634f245ef71161007f578063969a00e011610059578063969a00e0146102b7578063bbafd3d4146102d7578063e45be8eb14610304578063fc8c36a61461032f576100dd565b80634f245ef71461023457806358b5744e1461025f5780635ecbdce91461028c576100dd565b80630d11b852116100bb5780630d11b8521461017b5780631998aeef146101bc5780632a24f46c146101dc5780633ccfd60b14610207576100dd565b80630729763d146100e2578063098cbde21461010f5780630ac298dc1461013a575b600080fd5b3480156100ee57600080fd5b506100f761035a565b60405180821515815260200191505060405180910390f35b34801561011b57600080fd5b506101246103b1565b6040518082815260200191505060405180910390f35b34801561014657600080fd5b5061014f610417565b604051808273ffffffffffffffffffffffffffffffffffffffff16815260200191505060405180910390f35b34801561018757600080fd5b50610190610440565b604051808273ffffffffffffffffffffffffffffffffffffffff16815260200191505060405180910390f35b6101c46104c3565b60405180821515815260200191505060405180910390f35b3480156101e857600080fd5b506101f161093f565b6040518082815260200191505060405180910390f35b34801561021357600080fd5b5061021c610945565b60405180821515815260200191505060405180910390f35b34801561024057600080fd5b50610249610fbf565b6040518082815260200191505060405180910390f35b34801561026b57600080fd5b50610274610fc5565b60405180821515815260200191505060405180910390f35b34801561029857600080fd5b506102a1610fd8565b6040518082815260200191505060405180910390f35b6102bf610fde565b60405180821515815260200191505060405180910390f35b3480156102e357600080fd5b506102ec611476565b60405180821515815260200191505060405180910390f35b34801561031057600080fd5b50610319611665565b6040518082815260200191505060405180910390f35b34801561033b57600080fd5b5061034461166b565b6040518082815260200191505060405180910390f35b6000600860003373ffffffffffffffffffffffffffffffffffffffff1673ffffffffffffffffffffffffffffffffffffffff16815260200190815260200160002060010160009054906101000a900460ff16905090565b60008060009054906101000a900473ffffffffffffffffffffffffffffffffffffffff1673ffffffffffffffffffffffffffffffffffffffff163373ffffffffffffffffffffffffffffffffffffffff161461040c57600080fd5b600780549050905090565b60008060009054906101000a900473ffffffffffffffffffffffffffffffffffffffff16905090565b60008060009054906101000a900473ffffffffffffffffffffffffffffffffffffffff1673ffffffffffffffffffffffffffffffffffffffff163373ffffffffffffffffffffffffffffffffffffffff161461049b57600080fd5b600460009054906101000a900473ffffffffffffffffffffffffffffffffffffffff16905090565b6000600660009054906101000a900460ff16610547576040517f08c379a00000000000000000000000000000000000000000000000000000000081526004018080602001828103825260128152602001807f41756374696f6e2068617320656e6465642e000000000000000000000000000081525060200191505060405180910390fd5b60025442106105be576040517f08c379a00000000000000000000000000000000000000000000000000000000081526004018080602001828103825260128152602001807f41756374696f6e2068617320656e6465642e000000000000000000000000000081525060200191505060405180910390fd5b60035434600860003373ffffffffffffffffffffffffffffffffffffffff1673ffffffffffffffffffffffffffffffffffffffff168152602001908152602001600020600001540111610679576040517f08c379a000000000000000000000000000000000000000000000000000000000815260040180806020018281038252600c8152602001807f42696420746f6f206c6f772e000000000000000000000000000000000000000081525060200191505060405180910390fd5b6000600860003373ffffffffffffffffffffffffffffffffffffffff1673ffffffffffffffffffffffffffffffffffffffff1681526020019081526020016000206000015414156107b0576007339080600181540180825580915050600190039060005260206000200160009091909190916101000a81548173ffffffffffffffffffffffffffffffffffffffff021916908373ffffffffffffffffffffffffffffffffffffffff160217905550604051806040016040528034815260200160001515815250600860003373ffffffffffffffffffffffffffffffffffffffff1673ffffffffffffffffffffffffffffffffffffffff1681526020019081526020016000206000820151816000015560208201518160010160006101000a81548160ff02191690831515021790555090505061083c565b34600860003373ffffffffffffffffffffffffffffffffffffffff1673ffffffffffffffffffffffffffffffffffffffff1681526020019081526020016000206000015401600860003373ffffffffffffffffffffffffffffffffffffffff1673ffffffffffffffffffffffffffffffffffffffff168152602001908152602001600020600001819055505b33600460006101000a81548173ffffffffffffffffffffffffffffffffffffffff021916908373ffffffffffffffffffffffffffffffffffffffff160217905550600860003373ffffffffffffffffffffffffffffffffffffffff1673ffffffffffffffffffffffffffffffffffffffff16815260200190815260200160002060000154600381905550600460009054906101000a900473ffffffffffffffffffffffffffffffffffffffff1673ffffffffffffffffffffffffffffffffffffffff167f0d993d4f8a84158f5329713d6d13ef54e77b325040c887c8b3e565cfd0cd3e216003546040518082815260200191505060405180910390a26001905090565b60025481565b60006002544211806109645750600660009054906101000a900460ff16155b6109b9576040517f08c379a00000000000000000000000000000000000000000000000000000000081526004018080602001828103825260248152602001806116da6024913960400191505060405180910390fd5b600460009054906101000a900473ffffffffffffffffffffffffffffffffffffffff1673ffffffffffffffffffffffffffffffffffffffff163373ffffffffffffffffffffffffffffffffffffffff161415610a60576040517f08c379a00000000000000000000000000000000000000000000000000000000081526004018080602001828103825260238152602001806116fe6023913960400191505060405180910390fd5b6000151560086000600460009054906101000a900473ffffffffffffffffffffffffffffffffffffffff1673ffffffffffffffffffffffffffffffffffffffff1673ffffffffffffffffffffffffffffffffffffffff16815260200190815260200160002060010160009054906101000a900460ff1615151480610b30575060008054906101000a900473ffffffffffffffffffffffffffffffffffffffff1673ffffffffffffffffffffffffffffffffffffffff163373ffffffffffffffffffffffffffffffffffffffff1614155b610b85576040517f08c379a00000000000000000000000000000000000000000000000000000000081526004018080602001828103825260248152602001806117466024913960400191505060405180910390fd5b60001515600860003373ffffffffffffffffffffffffffffffffffffffff1673ffffffffffffffffffffffffffffffffffffffff16815260200190815260200160002060010160009054906101000a900460ff1615151480610c32575060008054906101000a900473ffffffffffffffffffffffffffffffffffffffff1673ffffffffffffffffffffffffffffffffffffffff163373ffffffffffffffffffffffffffffffffffffffff16145b610ca4576040517f08c379a000000000000000000000000000000000000000000000000000000000815260040180806020018281038252601c8152602001807f596f752068617665206e6f2062696420746f2077697468647261772e0000000081525060200191505060405180910390fd5b60008060009054906101000a900473ffffffffffffffffffffffffffffffffffffffff1673ffffffffffffffffffffffffffffffffffffffff163373ffffffffffffffffffffffffffffffffffffffff161415610de45760086000600460009054906101000a900473ffffffffffffffffffffffffffffffffffffffff1673ffffffffffffffffffffffffffffffffffffffff1673ffffffffffffffffffffffffffffffffffffffff168152602001908152602001600020600001549050600160086000600460009054906101000a900473ffffffffffffffffffffffffffffffffffffffff1673ffffffffffffffffffffffffffffffffffffffff1673ffffffffffffffffffffffffffffffffffffffff16815260200190815260200160002060010160006101000a81548160ff021916908315150217905550610e85565b600860003373ffffffffffffffffffffffffffffffffffffffff1673ffffffffffffffffffffffffffffffffffffffff1681526020019081526020016000206000015490506001600860003373ffffffffffffffffffffffffffffffffffffffff1673ffffffffffffffffffffffffffffffffffffffff16815260200190815260200160002060010160006101000a81548160ff0219169083151502179055505b60003373ffffffffffffffffffffffffffffffffffffffff168260405180600001905060006040518083038185875af1925050503d8060008114610ee5576040519150601f19603f3d011682016040523d82523d6000602084013e610eea565b606091505b5050905080610f61576040517f08c379a00000000000000000000000000000000000000000000000000000000081526004018080602001828103825260108152602001807f5472616e73666572206661696c65642e0000000000000000000000000000000081525060200191505060405180910390fd5b7f2f174ca282119315c59efaf21147aef438581dabdeb498198ae28964373dd8bc3383604051808373ffffffffffffffffffffffffffffffffffffffff1681526020018281526020019250505060405180910390a160019250505090565b60015481565b600660009054906101000a900460ff1681565b60095481565b6000600660009054906101000a900460ff16611062576040517f08c379a00000000000000000000000000000000000000000000000000000000081526004018080602001828103825260128152602001807f41756374696f6e2068617320656e6465642e000000000000000000000000000081525060200191505060405180910390fd5b60025442106110d9576040517f08c379a00000000000000000000000000000000000000000000000000000000081526004018080602001828103825260128152602001807f41756374696f6e2068617320656e6465642e000000000000000000000000000081525060200191505060405180910390fd5b60095434600860003373ffffffffffffffffffffffffffffffffffffffff1673ffffffffffffffffffffffffffffffffffffffff16815260200190815260200160002060000154011015611195576040517f08c379a000000000000000000000000000000000000000000000000000000000815260040180806020018281038252601d8152602001807f53656e74206c657373207468616e20627579206e6f772070726963652e00000081525060200191505060405180910390fd5b6000600660006101000a81548160ff0219169083151502179055506000600860003373ffffffffffffffffffffffffffffffffffffffff1673ffffffffffffffffffffffffffffffffffffffff1681526020019081526020016000206000015414156112e7576007339080600181540180825580915050600190039060005260206000200160009091909190916101000a81548173ffffffffffffffffffffffffffffffffffffffff021916908373ffffffffffffffffffffffffffffffffffffffff160217905550604051806040016040528034815260200160001515815250600860003373ffffffffffffffffffffffffffffffffffffffff1673ffffffffffffffffffffffffffffffffffffffff1681526020019081526020016000206000820151816000015560208201518160010160006101000a81548160ff021916908315150217905550905050611373565b34600860003373ffffffffffffffffffffffffffffffffffffffff1673ffffffffffffffffffffffffffffffffffffffff1681526020019081526020016000206000015401600860003373ffffffffffffffffffffffffffffffffffffffff1673ffffffffffffffffffffffffffffffffffffffff168152602001908152602001600020600001819055505b33600460006101000a81548173ffffffffffffffffffffffffffffffffffffffff021916908373ffffffffffffffffffffffffffffffffffffffff160217905550600860003373ffffffffffffffffffffffffffffffffffffffff1673ffffffffffffffffffffffffffffffffffffffff16815260200190815260200160002060000154600381905550600460009054906101000a900473ffffffffffffffffffffffffffffffffffffffff1673ffffffffffffffffffffffffffffffffffffffff167f1027a425782977e3813afc94e489dccce57fecec47b5b531804d7d8e9eb26bff6003546040518082815260200191505060405180910390a26001905090565b60008060009054906101000a900473ffffffffffffffffffffffffffffffffffffffff1673ffffffffffffffffffffffffffffffffffffffff163373ffffffffffffffffffffffffffffffffffffffff16146114d157600080fd5b600254421161152b576040517f08c379a00000000000000000000000000000000000000000000000000000000081526004018080602001828103825260248152602001806116b66024913960400191505060405180910390fd5b60005b60078054905081101561162b5760011515600860006007848154811061155057fe5b9060005260206000200160009054906101000a900473ffffffffffffffffffffffffffffffffffffffff1673ffffffffffffffffffffffffffffffffffffffff1673ffffffffffffffffffffffffffffffffffffffff16815260200190815260200160002060010160009054906101000a900460ff1615151461161e576040517f08c379a00000000000000000000000000000000000000000000000000000000081526004018080602001828103825260258152602001806117216025913960400191505060405180910390fd5b808060010191505061152e565b5060008054906101000a900473ffffffffffffffffffffffffffffffffffffffff1673ffffffffffffffffffffffffffffffffffffffff16ff5b60055481565b6000600860003373ffffffffffffffffffffffffffffffffffffffff1673ffffffffffffffffffffffffffffffffffffffff1681526020019081526020016000206000015490509056fe41756374696f6e207374696c6c206f70656e2e2043616e6e6f742064657374727563742e41756374696f6e207374696c6c206f70656e2e2043616e6e6f742077697468647261772e596f7520776f6e2c20796f752063616e6e6f742077697468647261772066756e64732e416c6c20626964732068617665206e6f74206265656e2077697468647261776e207965742e596f75206861766520616c72656164792077697468647261776e2077696e6e696e67732ea2646970667358221220c68c0718e495411e49b9d3db491806f3d64d7bc5e52b22c1683155ae132a42c164736f6c63430007050033",
  "immutableReferences": {},
  "source": "// SPDX-License-Identifier: MIT\npragma solidity ^0.7.5;\n\nimport \"./Auction.sol\";\n\ncontract ChannelAuction is Auction{\n\n    //If we want it to be a legitimate channel auction, \n    //ChannelAuction will need additional parameters like the rate at which the price is lowered \n    //How much is the value being decremented by and how often is the decrement taking place?\n    //Alternatively, we can have a static buy now price (like ebay or games like FIFA)\n    \n    uint256 public buyNowPrice;\n\n    constructor (address payable _owner, uint _biddingTime, uint _startBid, uint _buyNowPrice) {\n        auctionOwner = _owner;\n        auctionStart = block.timestamp; \n        auctionEnd = auctionStart + _biddingTime * 1 minutes;\n        minPrice = _startBid;\n        ongoingAuction = true;\n        buyNowPrice = _buyNowPrice;\n    }\n\n    function bid() external payable ongoing_auction override returns (bool) {\n        require(bids[msg.sender].value + msg.value > highestBid, \"Bid too low.\");\n        \n        if(bids[msg.sender].value == 0){\n            bidders.push(msg.sender);\n            bids[msg.sender] = Bid(msg.value, false);\n        } else {\n            bids[msg.sender].value = bids[msg.sender].value + msg.value;\n        }\n\n        highestBidder = msg.sender;\n        highestBid = bids[msg.sender].value;\n\n        emit BidEvent(highestBidder, highestBid);\n        return true;\n    }\n\n    function buy_now() public payable ongoing_auction returns (bool) {\n        require(bids[msg.sender].value + msg.value >= buyNowPrice, \"Sent less than buy now price.\");\n\n        ongoingAuction = false; \n\n        if(bids[msg.sender].value == 0){\n            bidders.push(msg.sender);\n            bids[msg.sender] = Bid(msg.value, false);\n        } else {\n            bids[msg.sender].value = bids[msg.sender].value + msg.value;\n        }\n        \n        highestBidder = msg.sender;\n        highestBid = bids[msg.sender].value;\n\n        emit BuyEvent(highestBidder, highestBid);\n        return true;\n    }\n\n    event BuyEvent(address indexed buyer, uint256 price);\n\n}",
  "sourcePath": "/home/bkitor/Projects/blockchain_auction/bca_react/contracts/ChannelAuction.sol",
  "compiler": {
    "name": "solc",
    "version": "0.7.5+commit.eb77ed08.Emscripten.clang"
  },
  "schemaVersion": "3.3.2",
  "updatedAt": "2021-02-14T19:08:39.067Z",
  "devdoc": {
    "kind": "dev",
    "methods": {},
    "version": 1
  },
  "userdoc": {
    "kind": "user",
    "methods": {},
    "version": 1
  }
}