{
  "contractName": "DutchAuction",
  "abi": [
    {
      "inputs": [
        {
          "internalType": "address payable",
          "name": "_owner",
          "type": "address"
        },
        {
          "internalType": "uint256",
          "name": "_biddingTime",
          "type": "uint256"
        },
        {
          "internalType": "uint256",
          "name": "_startPrice",
          "type": "uint256"
        },
        {
          "internalType": "uint256",
          "name": "_rate",
          "type": "uint256"
        },
        {
          "internalType": "uint256",
          "name": "_minBid",
          "type": "uint256"
        }
      ],
      "stateMutability": "nonpayable",
      "type": "constructor"
    },
    {
      "anonymous": false,
      "inputs": [
        {
          "indexed": true,
          "internalType": "address",
          "name": "bidder",
          "type": "address"
        },
        {
          "indexed": false,
          "internalType": "uint256",
          "name": "bid",
          "type": "uint256"
        }
      ],
      "name": "BidEvent",
      "type": "event"
    },
    {
      "anonymous": false,
      "inputs": [
        {
          "indexed": false,
          "internalType": "address",
          "name": "withdrawer",
          "type": "address"
        },
        {
          "indexed": false,
          "internalType": "uint256",
          "name": "amount",
          "type": "uint256"
        }
      ],
      "name": "WithdrawalEvent",
      "type": "event"
    },
    {
      "inputs": [],
      "name": "auctionEnd",
      "outputs": [
        {
          "internalType": "uint256",
          "name": "",
          "type": "uint256"
        }
      ],
      "stateMutability": "view",
      "type": "function"
    },
    {
      "inputs": [],
      "name": "auctionStart",
      "outputs": [
        {
          "internalType": "uint256",
          "name": "",
          "type": "uint256"
        }
      ],
      "stateMutability": "view",
      "type": "function"
    },
    {
      "inputs": [],
      "name": "destruct_auction",
      "outputs": [
        {
          "internalType": "bool",
          "name": "",
          "type": "bool"
        }
      ],
      "stateMutability": "nonpayable",
      "type": "function"
    },
    {
      "inputs": [],
      "name": "get_bid",
      "outputs": [
        {
          "internalType": "uint256",
          "name": "",
          "type": "uint256"
        }
      ],
      "stateMutability": "view",
      "type": "function"
    },
    {
      "inputs": [],
      "name": "get_highest_bidder",
      "outputs": [
        {
          "internalType": "address payable",
          "name": "",
          "type": "address"
        }
      ],
      "stateMutability": "view",
      "type": "function"
    },
    {
      "inputs": [],
      "name": "get_num_bidders",
      "outputs": [
        {
          "internalType": "uint256",
          "name": "",
          "type": "uint256"
        }
      ],
      "stateMutability": "view",
      "type": "function"
    },
    {
      "inputs": [],
      "name": "get_owner",
      "outputs": [
        {
          "internalType": "address payable",
          "name": "",
          "type": "address"
        }
      ],
      "stateMutability": "view",
      "type": "function"
    },
    {
      "inputs": [],
      "name": "get_withdrawn",
      "outputs": [
        {
          "internalType": "bool",
          "name": "",
          "type": "bool"
        }
      ],
      "stateMutability": "view",
      "type": "function"
    },
    {
      "inputs": [],
      "name": "minPrice",
      "outputs": [
        {
          "internalType": "uint256",
          "name": "",
          "type": "uint256"
        }
      ],
      "stateMutability": "view",
      "type": "function"
    },
    {
      "inputs": [],
      "name": "ongoingAuction",
      "outputs": [
        {
          "internalType": "bool",
          "name": "",
          "type": "bool"
        }
      ],
      "stateMutability": "view",
      "type": "function"
    },
    {
      "inputs": [],
      "name": "rate",
      "outputs": [
        {
          "internalType": "uint256",
          "name": "",
          "type": "uint256"
        }
      ],
      "stateMutability": "view",
      "type": "function"
    },
    {
      "inputs": [],
      "name": "startPrice",
      "outputs": [
        {
          "internalType": "uint256",
          "name": "",
          "type": "uint256"
        }
      ],
      "stateMutability": "view",
      "type": "function"
    },
    {
      "inputs": [],
      "name": "withdraw",
      "outputs": [
        {
          "internalType": "bool",
          "name": "",
          "type": "bool"
        }
      ],
      "stateMutability": "nonpayable",
      "type": "function"
    },
    {
      "inputs": [],
      "name": "bid",
      "outputs": [
        {
          "internalType": "bool",
          "name": "",
          "type": "bool"
        }
      ],
      "stateMutability": "payable",
      "type": "function"
    }
  ],
  "bytecode": "0x608060405234801561001057600080fd5b506040516112a63803806112a6833981810160405260a081101561003357600080fd5b810190808051906020019092919080519060200190929190805190602001909291908051906020019092919080519060200190929190505050846000806101000a81548173ffffffffffffffffffffffffffffffffffffffff021916908373ffffffffffffffffffffffffffffffffffffffff16021790555042600181905550603c8402600154016002819055508060058190555082600a81905550816009819055506001600660006101000a81548160ff02191690831515021790555050505050506111a1806101056000396000f3fe6080604052600436106100dd5760003560e01c80633ccfd60b1161007f578063bbafd3d411610059578063bbafd3d4146102b7578063e45be8eb146102e4578063f1a9af891461030f578063fc8c36a61461033a576100dd565b80633ccfd60b146102325780634f245ef71461025f57806358b5744e1461028a576100dd565b80630d11b852116100bb5780630d11b8521461017b5780631998aeef146101bc5780632a24f46c146101dc5780632c4e722e14610207576100dd565b80630729763d146100e2578063098cbde21461010f5780630ac298dc1461013a575b600080fd5b3480156100ee57600080fd5b506100f7610365565b60405180821515815260200191505060405180910390f35b34801561011b57600080fd5b506101246103bc565b6040518082815260200191505060405180910390f35b34801561014657600080fd5b5061014f610422565b604051808273ffffffffffffffffffffffffffffffffffffffff16815260200191505060405180910390f35b34801561018757600080fd5b5061019061044b565b604051808273ffffffffffffffffffffffffffffffffffffffff16815260200191505060405180910390f35b6101c46104ce565b60405180821515815260200191505060405180910390f35b3480156101e857600080fd5b506101f16107d3565b6040518082815260200191505060405180910390f35b34801561021357600080fd5b5061021c6107d9565b6040518082815260200191505060405180910390f35b34801561023e57600080fd5b506102476107df565b60405180821515815260200191505060405180910390f35b34801561026b57600080fd5b50610274610e59565b6040518082815260200191505060405180910390f35b34801561029657600080fd5b5061029f610e5f565b60405180821515815260200191505060405180910390f35b3480156102c357600080fd5b506102cc610e72565b60405180821515815260200191505060405180910390f35b3480156102f057600080fd5b506102f9611061565b6040518082815260200191505060405180910390f35b34801561031b57600080fd5b50610324611067565b6040518082815260200191505060405180910390f35b34801561034657600080fd5b5061034f61106d565b6040518082815260200191505060405180910390f35b6000600860003373ffffffffffffffffffffffffffffffffffffffff1673ffffffffffffffffffffffffffffffffffffffff16815260200190815260200160002060010160009054906101000a900460ff16905090565b60008060009054906101000a900473ffffffffffffffffffffffffffffffffffffffff1673ffffffffffffffffffffffffffffffffffffffff163373ffffffffffffffffffffffffffffffffffffffff161461041757600080fd5b600780549050905090565b60008060009054906101000a900473ffffffffffffffffffffffffffffffffffffffff16905090565b60008060009054906101000a900473ffffffffffffffffffffffffffffffffffffffff1673ffffffffffffffffffffffffffffffffffffffff163373ffffffffffffffffffffffffffffffffffffffff16146104a657600080fd5b600460009054906101000a900473ffffffffffffffffffffffffffffffffffffffff16905090565b6000600660009054906101000a900460ff16610552576040517f08c379a00000000000000000000000000000000000000000000000000000000081526004018080602001828103825260128152602001807f41756374696f6e2068617320656e6465642e000000000000000000000000000081525060200191505060405180910390fd5b60025442106105c9576040517f08c379a00000000000000000000000000000000000000000000000000000000081526004018080602001828103825260128152602001807f41756374696f6e2068617320656e6465642e000000000000000000000000000081525060200191505060405180910390fd5b603c60015442036009540202600a5403341015806105f85750603c60015442036009540202600a540360055410155b61060157600080fd5b60055434101561061057600080fd5b3460038190555033600460006101000a81548173ffffffffffffffffffffffffffffffffffffffff021916908373ffffffffffffffffffffffffffffffffffffffff1602179055506007339080600181540180825580915050600190039060005260206000200160009091909190916101000a81548173ffffffffffffffffffffffffffffffffffffffff021916908373ffffffffffffffffffffffffffffffffffffffff160217905550604051806040016040528034815260200160001515815250600860003373ffffffffffffffffffffffffffffffffffffffff1673ffffffffffffffffffffffffffffffffffffffff1681526020019081526020016000206000820151816000015560208201518160010160006101000a81548160ff0219169083151502179055509050506000600660006101000a81548160ff021916908315150217905550600460009054906101000a900473ffffffffffffffffffffffffffffffffffffffff1673ffffffffffffffffffffffffffffffffffffffff167f0d993d4f8a84158f5329713d6d13ef54e77b325040c887c8b3e565cfd0cd3e216003546040518082815260200191505060405180910390a26001905090565b60025481565b60095481565b60006002544211806107fe5750600660009054906101000a900460ff16155b610853576040517f08c379a00000000000000000000000000000000000000000000000000000000081526004018080602001828103825260248152602001806110dc6024913960400191505060405180910390fd5b600460009054906101000a900473ffffffffffffffffffffffffffffffffffffffff1673ffffffffffffffffffffffffffffffffffffffff163373ffffffffffffffffffffffffffffffffffffffff1614156108fa576040517f08c379a00000000000000000000000000000000000000000000000000000000081526004018080602001828103825260238152602001806111006023913960400191505060405180910390fd5b6000151560086000600460009054906101000a900473ffffffffffffffffffffffffffffffffffffffff1673ffffffffffffffffffffffffffffffffffffffff1673ffffffffffffffffffffffffffffffffffffffff16815260200190815260200160002060010160009054906101000a900460ff16151514806109ca575060008054906101000a900473ffffffffffffffffffffffffffffffffffffffff1673ffffffffffffffffffffffffffffffffffffffff163373ffffffffffffffffffffffffffffffffffffffff1614155b610a1f576040517f08c379a00000000000000000000000000000000000000000000000000000000081526004018080602001828103825260248152602001806111486024913960400191505060405180910390fd5b60001515600860003373ffffffffffffffffffffffffffffffffffffffff1673ffffffffffffffffffffffffffffffffffffffff16815260200190815260200160002060010160009054906101000a900460ff1615151480610acc575060008054906101000a900473ffffffffffffffffffffffffffffffffffffffff1673ffffffffffffffffffffffffffffffffffffffff163373ffffffffffffffffffffffffffffffffffffffff16145b610b3e576040517f08c379a000000000000000000000000000000000000000000000000000000000815260040180806020018281038252601c8152602001807f596f752068617665206e6f2062696420746f2077697468647261772e0000000081525060200191505060405180910390fd5b60008060009054906101000a900473ffffffffffffffffffffffffffffffffffffffff1673ffffffffffffffffffffffffffffffffffffffff163373ffffffffffffffffffffffffffffffffffffffff161415610c7e5760086000600460009054906101000a900473ffffffffffffffffffffffffffffffffffffffff1673ffffffffffffffffffffffffffffffffffffffff1673ffffffffffffffffffffffffffffffffffffffff168152602001908152602001600020600001549050600160086000600460009054906101000a900473ffffffffffffffffffffffffffffffffffffffff1673ffffffffffffffffffffffffffffffffffffffff1673ffffffffffffffffffffffffffffffffffffffff16815260200190815260200160002060010160006101000a81548160ff021916908315150217905550610d1f565b600860003373ffffffffffffffffffffffffffffffffffffffff1673ffffffffffffffffffffffffffffffffffffffff1681526020019081526020016000206000015490506001600860003373ffffffffffffffffffffffffffffffffffffffff1673ffffffffffffffffffffffffffffffffffffffff16815260200190815260200160002060010160006101000a81548160ff0219169083151502179055505b60003373ffffffffffffffffffffffffffffffffffffffff168260405180600001905060006040518083038185875af1925050503d8060008114610d7f576040519150601f19603f3d011682016040523d82523d6000602084013e610d84565b606091505b5050905080610dfb576040517f08c379a00000000000000000000000000000000000000000000000000000000081526004018080602001828103825260108152602001807f5472616e73666572206661696c65642e0000000000000000000000000000000081525060200191505060405180910390fd5b7f2f174ca282119315c59efaf21147aef438581dabdeb498198ae28964373dd8bc3383604051808373ffffffffffffffffffffffffffffffffffffffff1681526020018281526020019250505060405180910390a160019250505090565b60015481565b600660009054906101000a900460ff1681565b60008060009054906101000a900473ffffffffffffffffffffffffffffffffffffffff1673ffffffffffffffffffffffffffffffffffffffff163373ffffffffffffffffffffffffffffffffffffffff1614610ecd57600080fd5b6002544211610f27576040517f08c379a00000000000000000000000000000000000000000000000000000000081526004018080602001828103825260248152602001806110b86024913960400191505060405180910390fd5b60005b60078054905081101561102757600115156008600060078481548110610f4c57fe5b9060005260206000200160009054906101000a900473ffffffffffffffffffffffffffffffffffffffff1673ffffffffffffffffffffffffffffffffffffffff1673ffffffffffffffffffffffffffffffffffffffff16815260200190815260200160002060010160009054906101000a900460ff1615151461101a576040517f08c379a00000000000000000000000000000000000000000000000000000000081526004018080602001828103825260258152602001806111236025913960400191505060405180910390fd5b8080600101915050610f2a565b5060008054906101000a900473ffffffffffffffffffffffffffffffffffffffff1673ffffffffffffffffffffffffffffffffffffffff16ff5b60055481565b600a5481565b6000600860003373ffffffffffffffffffffffffffffffffffffffff1673ffffffffffffffffffffffffffffffffffffffff1681526020019081526020016000206000015490509056fe41756374696f6e207374696c6c206f70656e2e2043616e6e6f742064657374727563742e41756374696f6e207374696c6c206f70656e2e2043616e6e6f742077697468647261772e596f7520776f6e2c20796f752063616e6e6f742077697468647261772066756e64732e416c6c20626964732068617665206e6f74206265656e2077697468647261776e207965742e596f75206861766520616c72656164792077697468647261776e2077696e6e696e67732ea26469706673582212207475b88b3afe3492b05cde6fee2348c1f7bb6d09753fcb03ac0054f6a87cd7e664736f6c63430007050033",
  "immutableReferences": {},
  "source": "// SPDX-License-Identifier: MIT\npragma solidity ^0.7.5;\n\nimport \"./Auction.sol\";\n\ncontract DutchAuction is Auction{\n\t\n\tuint public rate;\n\tuint public startPrice;\n\t//might want to also add a var for the winning bid here\n\n\tconstructor (address payable _owner, uint _biddingTime, uint _startPrice, uint _rate, uint _minBid) {\n\t\tauctionOwner = _owner;\n\t\tauctionStart = block.timestamp; \n\t\tauctionEnd = auctionStart + _biddingTime * 1 minutes;\n\t\tminPrice = _minBid;\n\t\tstartPrice = _startPrice;\n\t\trate = _rate;\n\t\tongoingAuction = true;\n\t}\n\n\tfunction bid() external payable ongoing_auction override returns (bool) {\n\t\trequire(msg.value >= startPrice - (rate * (block.timestamp - auctionStart)*1 minutes) || minPrice >= startPrice - (rate * (block.timestamp - auctionStart)*1 minutes));\n\t\trequire(msg.value >= minPrice);\n\n\t\thighestBid = msg.value;\n\t\thighestBidder = msg.sender;\n\n\t\tbidders.push(msg.sender);\n\t\tbids[msg.sender] = Bid(msg.value, false);\n\n\t\tongoingAuction = false;\n\t\t// auctionEnd = block.timestamp;\n\n\t\temit BidEvent(highestBidder, highestBid);\n\t\treturn true;\n\t}\n\n}",
  "sourcePath": "/home/bkitor/Projects/blockchain_auction/bca_react/contracts/DutchAuction.sol",
  "compiler": {
    "name": "solc",
    "version": "0.7.5+commit.eb77ed08.Emscripten.clang"
  },
  "schemaVersion": "3.3.2",
  "updatedAt": "2021-02-14T19:08:39.072Z",
  "devdoc": {
    "kind": "dev",
    "methods": {},
    "version": 1
  },
  "userdoc": {
    "kind": "user",
    "methods": {},
    "version": 1
  }
}